:020000040800F2
:1000000000000220714400089D3B0008A33B00084B
:10001000A93B0008AF3B0008B53B0008000000000A
:10002000000000000000000000000000BB3B0008D2
:10003000C93B000800000000D73B0008E53B000872
:10004000C1440008C1440008C1440008C14400087C
:10005000C1440008C1440008C1440008C14400086C
:10006000C1440008C1440008C1440008C14400085C
:10007000C1440008C1440008C1440008C14400084C
:10008000C1440008C1440008C1440008C14400083C
:10009000C1440008C1440008C1440008C14400082C
:1000A000C1440008C1440008C1440008C14400081C
:1000B000F13B0008C1440008C1440008C1440008E5
:1000C000C1440008C1440008C1440008C1440008FC
:1000D000C1440008053C0008193C0008C144000860
:1000E000C1440008C1440008C1440008C1440008DC
:1000F000C1440008C1440008C1440008C1440008CC
:10010000C1440008C1440008C1440008C1440008BB
:10011000C1440008C1440008C1440008C1440008AB
:100120002D3C0008C1440008C1440008C144000837
:10013000C1440008C1440008C1440008C14400088B
:10014000C1440008C1440008C1440008C14400087B
:10015000C1440008C1440008C1440008C14400086B
:10016000C1440008C1440008C1440008C14400085B
:10017000C1440008C1440008C14400080000000058
:08018000C1440008C14400085D
:1001900010B5054C237833B9044B13B10448AFF3C1
:1001A00000800123237010BD240100200000000006
:1001B000ECA8000808B5034B1BB103490348AFF393
:1001C000008008BD0000000028010020ECA8000805
:1001D000034613F8012B002AFBD1181A0138704787
:1001E00001F0FF01102A2BDB10F0070F08D010F8E8
:1001F000013B013A8B422DD010F0070F42B3F6D1EC
:10020000F0B441EA012141EA014122F007047FF004
:1002100000070023F0E80256083C85EA010586EA5B
:10022000010685FA47F5A3FA87F586FA47F6A5FA97
:1002300087F68EB9EED1F0BC01F0FF0102F00702A3
:1002400032B110F8013B013A83EA010313B1F8D14E
:100250000020704701387047002D06BF354603382F
:10026000073815F0010F07D1013015F4807F02BF68
:10027000013015F4C03F0130F0BC0138704700BFB9
:1002800053B94AB9002908BF00281CBF4FF0FF31FD
:100290004FF0FF3000F070B9ADF1080C6DE904CEFD
:1002A00000F006F8DDF804E0DDE9022304B0704751
:1002B0002DE9F047089E0D4604460F46002B4AD113
:1002C0008A42944665D9B2FA82F343B102FA03FC3A
:1002D000C3F120029F4020FA02F217439C404FEAEC
:1002E0001C4E1FFA8CF5B7FBFEF1220C0EFB1177AA
:1002F00042EA074201FB05F090420AD91CEB0202D8
:1003000001F1FF3780F01C81904240F219810239DF
:100310006244121AA4B2B2FBFEF00EFB102244EAB1
:10032000024400FB05F5A5420AD91CEB040400F1C8
:10033000FF3280F00781A54240F204816444023814
:1003400040EA0140641B00211EB1DC400023C6E9E5
:100350000043BDE8F0878B4208D9002E00F0ED8005
:100360000021C6E900050846BDE8F087B3FA83F12D
:10037000002949D1AB4202D3824200F2F880841AAC
:1003800065EB030201201746002EE2D0C6E90047C4
:10039000DFE702B9FFDEB2FA82F3002B40F0908073
:1003A0008A1A4FEA1C471FFA8CFE0121B2FBF7F5AF
:1003B00007FB1520220C42EA00420EFB05F090429A
:1003C00008D91CEB020205F1FF3802D2904200F27C
:1003D000CB804546121AA4B2B2FBF7F007FB1022FD
:1003E00044EA02440EFB00FEA64508D91CEB0404B7
:1003F00000F1FF3202D2A64500F2BB801046A4EB0A
:100400000E0440EA05409FE7C1F120078B4022FA25
:1004100007FC4CEA030C05FA01F420FA07F3FD404F
:100420004FEA1C492343B5FBF9F81FFA8CFE09FB80
:1004300018551C0C44EA054408FB0EF5A54202FAC7
:1004400001F200FA01F00BD91CEB040408F1FF3AA9
:1004500080F08880A54240F28580A8F102086444BB
:10046000641B9DB2B4FBF9F309FB134445EA044451
:1004700003FB0EFEA64508D91CEB040403F1FF356F
:100480006CD2A6456AD9023B644443EA0843A3FB05
:100490000295A4EB0E04AC42C846AE4656D353D0E8
:1004A00056B1B0EB080264EB0E0404FA07F7CA4039
:1004B000CC401743C6E9007418460021BDE8F08718
:1004C000C3F1200102FA03FC20FA01F225FA01F13E
:1004D0009D402A434FEA1C471FFA8CFEB1FBF7F000
:1004E00007FB1015110C41EA054100FB0EF58D428A
:1004F00004FA03F408D91CEB010100F1FF382FD2F4
:100500008D422DD902386144491B92B2B1FBF7F5F7
:1005100007FB151142EA014205FB0EF1914208D991
:100520001CEB020205F1FF3816D2914214D9023DAC
:100530006244521A45EA004138E73146304608E73E
:100540003946E6E61046FBE64845A9D2B9EB020873
:1005500065EB0C0E013BA3E74546EAE72B4694E723
:100560004046D1E7D0467BE7023D624432E7084689
:100570000AE76444023842E7704700BF80B584B0A0
:1005800000AF3B4600221A605A609A60DA603D4B29
:100590003D4A1A603B4B00225A603A4B00229A6057
:1005A000384B01221A61374B00221A76354B002254
:1005B00083F82020334B0022DA62324B334A9A62AE
:1005C000304B0022DA602F4B0522DA612D4B0022DE
:1005D00083F830202B4B01225A612A4804F008F896
:1005E0000346002B01D001F08DFC08233B60012362
:1005F0007B600023BB603B461946224804F06AF941
:100600000346002B01D001F07DFC09233B6002234F
:100610007B603B4619461B4804F05CF90346002BFF
:1006200001D001F06FFC0A233B6003237B603B4653
:100630001946144804F04EF90346002B01D001F08E
:1006400061FC0B233B6004237B603B4619460D484D
:1006500004F040F90346002B01D001F053FC0C23B9
:100660003B6005237B603B461946064804F032F99F
:100670000346002B01D001F045FC00BF1037BD46FA
:1006800080BD00BF40010020002001400100000F9C
:1006900080B58AB000AF786007F1140300221A60B9
:1006A0005A609A60DA601A617B681B683C4A934220
:1006B00071D100233B613B4B5B6C3A4A43F480733E
:1006C0005364384B5B6C03F480733B613B690023DC
:1006D000FB60344B1B6B334A43F004031363314B11
:1006E0001B6B03F00403FB60FB680023BB602D4B16
:1006F0001B6B2C4A43F0020313632A4B1B6B03F062
:100700000203BB60BB6807237B610323BB6100233B
:10071000FB6107F114031946234805F08FF8032302
:100720007B610323BB610023FB6107F114031946BE
:100730001E4805F083F81E4B1E4A1A601C4B00220F
:100740005A601B4B00229A60194B0022DA60184B4A
:100750004FF480621A61164B4FF400625A61144BD9
:100760004FF400529A61124B4FF48072DA61104BD1
:1007700000221A620E4B00225A620D4804F05CFC03
:100780000346002B01D001F0BDFB7B68084A9A6349
:10079000074A7B68936300BF2837BD4680BD00BF12
:1007A00000200140003802400008024000040240DE
:1007B000880100201064024080B500AF01220821AA
:1007C000024805F0D7F900BF80BD00BF000C024011
:1007D00080B584B000AF002208212F4805F0CAF987
:1007E000012208212C4805F0C5F90A2302222B49D1
:1007F0002B4806F07AF90023FB604FF400437B811D
:1008000000237B603FE07B68002B06DB7B68032BCB
:1008100003DC7B680433FB6018E07B68032B07DD97
:100820007B68072B04DC7B68C3F10703FB600DE0EA
:100830007B68072B06DD7B680B2B03DC7B680433AE
:10084000FB6003E07B68C3F11703FB60134B1A885E
:100850007B8913409BB2002B05D0124AFB68002114
:1008600022F8131009E00F4AFB6832F81330013305
:1008700099B20C4AFB6822F813107B895B087B81D4
:100880007B6801337B607B680F2BBCDD00BF00BF42
:100890001037BD4680BD00BF000C0240080200209A
:1008A000BC050020E801002080B582B000AF002325
:1008B0007B600C4B1B6B0B4A43F480031363094BA7
:1008C0001B6B03F480037B607B68002200213820CF
:1008D00004F07BFB382004F094FB00BF0837BD46D2
:1008E00080BD00BF0038024080B58EB000AF07F178
:1008F0001C0300221A605A609A60DA601A615A6119
:100900009A613B4600221A605A609A60DA601A6166
:100910005A619A612F4B4FF020421A602D4B2E4A9C
:100920005A602C4B00229A602A4B0022DA60294B35
:1009300000221A61274B10225A61264B00229A612D
:10094000244B0022DA61234B00221A62214B002241
:100950005A62204B4FF480529A621E4B0022DA6298
:100960001C4B4FF480421A631A4B00225A63194BF6
:1009700000229A63174B00225A640F23FB610F2356
:100980003B623C237B620023BB621023FB6211238A
:100990003B6300237B6308233B600F237B600923B9
:1009A000BB600023FB6010233B6111237B610023AC
:1009B000BB613A4607F11C031946064806F078FC6D
:1009C0000346002B01D001F09DFA00BF3837BD4629
:1009D00080BD00BF0C020020040100A080B586B0DD
:1009E00000AF3B1D00221A605A609A60DA601A61FB
:1009F0001C4B1B68002B31D11A4B01221A600023BB
:100A00003B60194B9B6B184A43F001039363164BF1
:100A10009B6B03F001033B603B684FF688737B6080
:100A20000223BB600023FB6003233B610C237B613B
:100A30003B1D19460D4804F001FF4CF2B3737B6077
:100A40000223BB600023FB6003233B610C237B611B
:100A50003B1D1946064804F0F1FE00E000BF1837C0
:100A6000BD4680BD5C0200200038024000100240FC
:100A7000000C024080B582B000AF7860FFF7AEFF97
:100A800000BF0837BD4680BD80B58EB000AF07F10E
:100A9000240300221A605A609A60DA601A61002307
:100AA0003B628F4B1B6B8E4A43F0100313638C4BDE
:100AB0001B6B03F010033B623B6A0023FB61884B16
:100AC0001B6B874A43F004031363854B1B6B03F0D6
:100AD0000403FB61FB690023BB61814B1B6B804AF4
:100AE00043F0200313637E4B1B6B03F02003BB61B9
:100AF000BB6900237B617A4B1B6B794A43F080030F
:100B00001363774B1B6B03F080037B617B690023CE
:100B10003B61734B1B6B724A43F001031363704BD1
:100B20001B6B03F001033B613B690023FB606C4BD3
:100B30001B6B6B4A43F002031363694B1B6B03F09F
:100B40000203FB60FB680023BB60654B1B6B644AC0
:100B500043F008031363624B1B6B03F00803BB6095
:100B6000BB6800237B605E4B1B6B5D4A43F0400318
:100B700013635B4B1B6B03F040037B607B680022BD
:100B80007021584804F0F6FF00224FF408515648EF
:100B900004F0F0FF00224FF48061544804F0EAFFB3
:100BA00000224FF4E071524804F0E4FF00224FF4B9
:100BB0008071504804F0DEFF002208214E4804F006
:100BC000D9FF70237B620123BB620023FB620023F9
:100BD0003B6307F124031946424804F02FFE4FF40B
:100BE00008537B620123BB620023FB6200233B634B
:100BF00007F1240319463C4804F020FE4FF400732B
:100C00007B620023BB620023FB6207F124031946C9
:100C1000364804F013FE4FF480637B620123BB620D
:100C20000023FB6200233B6307F1240319462F488E
:100C300004F004FEC0237B620023BB620023FB623E
:100C400007F1240319462B4804F0F8FD30237B629A
:100C50000023BB620023FB6207F1240319462248EC
:100C600004F0ECFD4FF4E0737B620123BB620023D0
:100C7000FB6200233B6307F1240319461C4804F080
:100C8000DDFD4FF488537B620023BB620123FB62CE
:100C900007F124031946144804F0D0FD4FF4807383
:100CA0007B620123BB620023FB6200233B6307F1ED
:100CB000240319460F4804F0C1FD08237B62012379
:100CC000BB620023FB6200233B6307F12403194648
:100CD000094804F0B3FD00BF3837BD4680BD00BFF2
:100CE0000038024000100240000802400014024098
:100CF0000018024000000240000C024080B500AF26
:100D0000124B134A1A60114B124A5A600F4B0022C1
:100D10009A600E4B0022DA600C4B4FF480421A614D
:100D20000A4B00225A61094B00229A61074B0022AC
:100D3000DA61064B00221A62044804F035FF0346CC
:100D4000002B01D001F0DEF800BF80BD6002002062
:100D500000540040A086010080B58AB000AF7860E2
:100D600007F1140300221A605A609A60DA601A616F
:100D70007B681B68194A93422BD100233B61184BB7
:100D80001B6B174A43F002031363154B1B6B03F0F5
:100D900002033B613B69C0237B611223BB610023DB
:100DA000FB6103233B6204237B6207F114031946B2
:100DB0000C4804F043FD0023FB60094B1B6C084A00
:100DC00043F400131364064B1B6C03F40013FB6025
:100DD000FB6800BF2837BD4680BD00BF00540040FF
:100DE000003802400004024080B483B000AF0346E4
:100DF000FB80044AFB88138000BF0C37BD465DF8BA
:100E0000047B7047FEFF0F6080B483B000AF0346E1
:100E1000FB80044AFB88538000BF0C37BD465DF859
:100E2000047B7047FEFF0F6080B483B000AF064BB9
:100E30005B889BB2FB80FB889BB218460C37BD4693
:100E40005DF8047B704700BFFEFF0F6090B583B074
:100E500000AF0446084611461A462346FB80034667
:100E6000BB800B467B8013463B802A20FFF7BCFFEC
:100E7000FB881B0A9BB21846FFF7C6FFFB88DBB254
:100E80009BB21846FFF7C0FF7B881B0A9BB218462F
:100E9000FFF7BAFF7B88DBB29BB21846FFF7B4FFBF
:100EA0002B20FFF7A1FFBB881B0A9BB21846FFF758
:100EB000ABFFBB88DBB29BB21846FFF7A5FF3B88B0
:100EC0001B0A9BB21846FFF79FFF3B88DBB29BB221
:100ED0001846FFF799FF2C20FFF786FF00BF0C375D
:100EE000BD4690BD80B584B000AF0346FB80154B76
:100EF0001B88013B9AB2134B5B88013B9BB20021DC
:100F00000020FFF7A3FF0023FB8111E00023BB813A
:100F100006E0FB881846FFF777FFBB890133BB81EA
:100F2000084B5B88BA899A42F3D3FB890133FB8172
:100F3000044B1B88FA899A42E8D300BF00BF1037E0
:100F4000BD4680BDB402002090B585B000AF044618
:100F5000084611461A462346FB800346BB800B46D3
:100F60007B8013463B807B88013B9AB23B88013BE8
:100F70009BB2B988F888FFF769FFBB88FB8110E056
:100F8000FB88BB8106E03B8C1846FFF73DFFBB8921
:100F90000133BB81BA897B889A42F4D3FB89013340
:100FA000FB81FA893B889A42EAD300BF00BF14371D
:100FB000BD4690BD80B582B000AF0346FB800B46B6
:100FC000BB8013467B80BB88FA88B988F888FFF716
:100FD0003DFF7B881846FFF717FF00BF0837BD4667
:100FE00080BD90B58DB000AF0446084611461A4644
:100FF0002346FB800346BB800B467B8013463B8029
:101000000023BB6200237B627A88FB88D31A3B6291
:101010003A88BB88D31AFB61FB88FB60BB88BB6046
:101020003B6A002B02DD01237B610BE03B6A002B56
:1010300002D100237B6105E04FF0FF337B613B6A07
:101040005B423B62FB69002B02DD01233B610BE04D
:10105000FB69002B02D100233B6105E04FF0FF3319
:101060003B61FB695B42FB613A6AFB699A4202DDC4
:101070003B6ABB6101E0FB69BB610023FB852BE0A0
:10108000FB689BB2BA6891B2B7F840201846FFF7E8
:1010900091FFBA6A3B6A1344BB627A6AFB691344E4
:1010A0007B62BA6ABB699A4207DDBA6ABB69D31A26
:1010B000BB62FA687B691344FB607A6ABB699A4237
:1010C00007DD7A6ABB69D31A7B62BA683B6913444D
:1010D000BB60FB8D0133FB85FB8DBA699A42CFDA89
:1010E00000BF00BF3437BD4690BD90B585B002AF9C
:1010F0000446084611461A462346FB800346BB8039
:101100000B467B8013463B80BC887A88B988F88878
:101110003B8B00932346FFF764FF3C88FA88B9882D
:10112000F8883B8B00932346FFF75BFF3C887A8867
:101130003988F8883B8B00932346FFF752FF3C88A1
:101140007A88B98878883B8B00932346FFF749FF5C
:1011500000BF0C37BD4690BD90B587B000AF0446C8
:10116000084611461A462346FB800346BB800B46C1
:10117000FB7013463B8000237B75FB883B8297F80E
:101180002C305B08FB73FB7BDB08DBB21A46FB7B76
:1011900003F00703DBB2002B14BF01230023DBB2F3
:1011A00013449AB297F82C309BB212FB03F3BB8125
:1011B000FB78203BFB70FB7B9AB2FB8813449BB20D
:1011C000013B9CB297F82C309AB2BB8813449BB277
:1011D000013B9BB2B988F8882246FFF737FE00230F
:1011E0007B827AE097F82C300C2B28D097F82C30A3
:1011F000102B08D1FA787B8A3C4912010A44134427
:101200001B78FB751BE097F82C30182B0BD1FA7864
:10121000798A374813465B0013441B0103440B448F
:101220001B78FB750BE097F82C30202B5AD1FA78FD
:101230007B8A304992010A4413441B78FB750023D2
:10124000BB7544E097F83030002B20D1FA7DBB7D90
:1012500042FA03F303F00103002B04D03B88184645
:10126000FFF7D2FD03E03B8D1846FFF7CDFD7B7DF8
:1012700001337B757B7DFA7BB3FBF2F101FB02F25C
:101280009B1ADBB2002B1FD100237B7522E0FA7D75
:10129000BB7D42FA03F303F00103002B05D03A882B
:1012A000B988FB881846FFF785FEFB880133FB8071
:1012B000FA883B8AD21AFB7B9A4205D13B8AFB8093
:1012C000BB880133BB8005E0BB7D0133BB75BB7DB3
:1012D000072BB7D97B8A01337B827A8ABB899A42F2
:1012E00080D300E000BF1C37BD4690BD80AA000837
:1012F00070B0000840C2000880B485B000AF03465B
:101300000A46FB711346BB710123FB6004E0FA79C6
:10131000FB6802FB03F3FB60BB795A1EBA71002B1A
:10132000F5D1FB6818461437BD465DF8047B70475D
:1013300090B589B004AF0446084611461A462346C4
:10134000FB800346BB800B467B8013467B700023EB
:10135000BB7397F828305B087B730023FB7359E05D
:101360007C887A78FB7BD31ADBB2013BDBB219466F
:101370000A20FFF7C1FF0346B4FBF3F12A4BA3FB9E
:101380000123DA0813469B0013445B00CA1A134674
:101390003B73BB7B002B21D1FA7B7B78013B9A42CC
:1013A0001CDA3B7B002B17D1FB7B9AB27B7B9BB279
:1013B00012FB03F39AB2FB88134498B23A8CB988B3
:1013C0000023029397F828300193BB8C00931346B7
:1013D0002022FFF7C1FE1AE00123BB73FB7B9AB208
:1013E0007B7B9BB212FB03F39AB2FB88134498B247
:1013F0003B7B3033DAB23C8CB9880023029397F8F8
:1014000028300193BB8C00932346FFF7A5FEFB7B9E
:101410000133FB73FA7B7B789A42A1D300BF00BFF4
:101420001437BD4690BD00BFCDCCCCCC90B587B0B5
:1014300000AF0446084611461A462346FB80034681
:10144000BB800B467B8013463B8000233B61FA88C0
:101450007B8813449BB2013B9CB2BA883B881344FF
:101460009BB2013B9BB2B988F8882246FFF7EEFC9D
:101470000023FB8227E00023BB821DE03B695B0069
:10148000BA6A13441B78FB733B695B000133BA6A89
:1014900013441B78BB73FB7B1B021AB2BB7B1BB2D2
:1014A00013431BB29BB21846FFF7AEFC3B690133F6
:1014B0003B61BB8A0133BB82BA8A3B889A42DDD347
:1014C000FB8A0133FB82FA8A7B889A42D3D300BF1E
:1014D00000BF1C37BD4690BD80B483B000AF03464B
:1014E000FB71FB791B09DBB203F00303DBB2002BBA
:1014F00007D00A4B4FF4A0721A80084BF0225A8092
:1015000006E0064BF0221A80044B4FF4A0725A807A
:1015100000BF0C37BD465DF8047B7047B402002065
:1015200080B500AF00224FF40051AA4804F022FB1E
:101530004FF4FA7003F038F801224FF40051A54837
:1015400004F018FB4FF4FA7003F02EF80020FFF7B8
:10155000C3FFD320FFF748FCFFF766FC03461A469B
:101560009D4B9A80FFF760FC03461A469A4B9A807F
:10157000FFF75AFC03461A46974B9A80964B9B8876
:101580001B029AB2944B9A80FFF74EFC03461A4610
:10159000914B9B8813439AB28F4B9A80CF20FFF7D1
:1015A00023FC0020FFF730FCC120FFF72DFC30208A
:1015B000FFF72AFCED20FFF717FC6420FFF724FC5F
:1015C0000320FFF721FC1220FFF71EFC8120FFF70C
:1015D0001BFCE820FFF708FC8520FFF715FC102016
:1015E000FFF712FC7A20FFF70FFCCB20FFF7FCFB84
:1015F0003920FFF709FC2C20FFF706FC0020FFF73D
:1016000003FC3420FFF700FC0220FFF7FDFBF7206E
:10161000FFF7EAFB2020FFF7F7FBEA20FFF7E4FBE8
:101620000020FFF7F1FB0020FFF7EEFBC020FFF7E3
:10163000DBFB1B20FFF7E8FBC120FFF7D5FB0120F8
:10164000FFF7E2FBC520FFF7CFFB3020FFF7DCFB05
:101650003020FFF7D9FBC720FFF7C6FBB720FFF705
:10166000D3FB3620FFF7C0FB0820FFF7CDFB3A2065
:10167000FFF7BAFB5520FFF7C7FBB120FFF7B4FB1C
:101680000020FFF7C1FB1A20FFF7BEFBB620FFF7D3
:10169000ABFB0A20FFF7B8FBA220FFF7B5FBF22057
:1016A000FFF7A2FB0020FFF7AFFB2620FFF79CFB14
:1016B0000120FFF7A9FBE020FFF796FB0F20FFF7C3
:1016C000A3FB2A20FFF7A0FB2820FFF79DFB0820A3
:1016D000FFF79AFB0E20FFF797FB0820FFF794FB1C
:1016E0005420FFF791FBA920FFF78EFB4320FFF763
:1016F0008BFB0A20FFF788FB0F20FFF785FB0020FC
:10170000FFF782FB0020FFF77FFB0020FFF77CFB49
:101710000020FFF779FBE120FFF766FB0020FFF7D1
:1017200073FB1520FFF770FB1720FFF76DFB0720F9
:10173000FFF76AFB1120FFF767FB0620FFF764FB4A
:101740002B20FFF761FB5620FFF75EFB3C20FFF7E5
:101750005BFB0520FFF758FB1020FFF755FB0F2020
:10176000FFF752FB3F20FFF74FFB3F20FFF74CFBFB
:101770000F20FFF749FB2B20FFF736FB0020FFF778
:1017800043FB0020FFF740FB0120FFF73DFB3F201C
:10179000FFF73AFB2A20FFF727FB0020FFF734FB77
:1017A0000020FFF731FB0020FFF72EFBEF20FFF7B3
:1017B0002BFB1120FFF718FB782002F0F5FE292003
:1017C000FFF712FB01224FF48071044804F0D2F9B4
:1017D00000BF80BD00080240B402002000000240AB
:1017E00090B58BB004AFBA601A460346FB810B4636
:1017F000BB811346FB80FB89BB820023FB7548E05D
:10180000FB7D002B45D1FA89264B1B88194697F89A
:101810002C305B08DBB2CB1A9A423FDCBA89214BF1
:101820005B88194697F82C30CB1A9A4236DCBB6895
:101830001B78802B02D90123FB752AE0BB681B783B
:101840000D2B0BD197F82C309AB2BB891344BB8176
:10185000BB8AFB81BB680133BB6017E0BB681A78A9
:10186000FC88B989F88997F83030029397F82C30C2
:1018700001933B8D00932346FFF76EFC97F82C30C5
:101880005B08DBB29AB2FB891344FB81BB6801336E
:10189000BB60BB681B78002BB2D100E000BF1C37D7
:1018A000BD4690BDB402002080B500AF01224021AA
:1018B000024804F05FF900BF80BD00BF001802407D
:1018C00080B500AF3F4B1B88DBB29AB23D4B1A800C
:1018D0003D4B1B683D4AD35C1B021AB2394B1B8837
:1018E0001BB213431BB29AB2364B1A80364B1B689D
:1018F000032B47D801A252F823F000BF0D190008AE
:101900002B19000849190008671900082D4B1B887E
:1019100043F0B0039AB22B4B1A802A4B1B8823F05A
:1019200040039AB2274B1A802DE0264B1B8843F0C8
:10193000D0039AB2234B1A80224B1B8823F020033A
:101940009AB2204B1A801EE01E4B1B8843F0E00326
:101950009AB21C4B1A801B4B1B8823F010039AB2BF
:10196000184B1A800FE0174B1B8843F070039AB294
:10197000144B1A80134B1B8823F080039AB2114B2F
:101980001A8000E000BF104B1B6801335A4203F07D
:10199000030302F0030258BF53420B4A13600022B4
:1019A00040210B4804F0E6F80123022205490948CA
:1019B00004F05FFF01224021054804F0DBF800BF7E
:1019C00080BD00BF0E000020BC02002000000020EF
:1019D00000180240BC05002080B485B000AFF8605C
:1019E000B9601346FB71FB68002B0EDBFB68092B0B
:1019F0000BDC094AFB6813441A78FB79D31AD9B275
:101A0000064ABB6813440A461A7000BF1437BD4625
:101A10005DF8047B704700BF040000200000002038
:101A200080B500AF02F04EFD00F07EF8FFF72CF815
:101A300002F02EFA02F00CF8FEF756FFFFF75EF9FF
:101A400002F072FAFEF730FFFEF798FD02F0D0F9CF
:101A500002F058FC02F02CFC00F0D0F84FF6FF70BA
:101A6000FFF740FA00BF2A4B1B88002BFBD0284B06
:101A700000221A80FEF7ACFE264B1B88012B07D1F3
:101A800000F054FA02F09CFB43F6982001F07EFF30
:101A9000214B1B88022B34D0022BE3DC002B02D01D
:101AA000012B10D033E000F0D1F81C4B1B88012B28
:101AB0002AD1194B02221A800020FFF713FA174B84
:101AC00000221A8020E0164B1A88164BA3FB021343
:101AD00059080B465B000B44D31A9BB2184601F021
:101AE0007BFE01F0ADFD0D4B1B8B012B0ED10A4B84
:101AF00002221A800020FFF7F5F9084B00221A8312
:101B000004E000F09DF902E000BFABE700BFA9E7E9
:101B1000B0050020B6050020C2020020E801002028
:101B200010000020ABAAAAAA80B594B000AF07F1BC
:101B3000200330220021184607F06FFE07F10C0346
:101B400000221A605A609A60DA601A610023BB6052
:101B5000284B1B6C274A43F080531364254B1B6CA6
:101B600003F08053BB60BB6800237B60224B1B6883
:101B7000214A43F4804313601F4B1B6803F48043E6
:101B80007B607B6802233B620123FB6210233B6383
:101B90000223BB630023FB6308233B64A8237B640D
:101BA0000223BB640423FB6407F12003184604F0FE
:101BB0003FF90346002B01D000F0A4F90F23FB608E
:101BC00002233B6100237B614FF4A053BB614FF4C0
:101BD000A053FB6107F10C030521184604F0A0FB9C
:101BE0000346002B01D000F08DF900BF5037BD46F1
:101BF00080BD00BF003802400070004080B500AFDB
:101C000000222021104803F0B5FF002240210E4899
:101C100003F0B0FF002210210B4803F0ABFF01F0EE
:101C20008BFEFFF741FEFEF7C7FDFFF779FC00F0E2
:101C30006FF902F053FA322001F08CFE43F698203F
:101C400001F0A4FE00BF80BD0010024080B584B04A
:101C500004AF334B00935A235A2214215020FFF72C
:101C6000E5FB01230293182301934FF6FF730093C2
:101C70004FF478432B4A73213220FFF7B1FD012343
:101C80000293102301934FF6FF7300930023264A1B
:101C900096212A20FFF7A4FD01230293102301932C
:101CA0004FF6FF7300930023204AA8212A20FFF754
:101CB00097FD01230293102301934FF6FF730093C6
:101CC00000231B4ABE213020FFF78AFD0123029327
:101CD000102301934FF6FF7300930023154AD2217E
:101CE0003020FFF77DFD01230293102301934FF66F
:101CF000FF7300930023104AE6213020FFF770FDA8
:101D000001230293102301934FF6FF7300930023E6
:101D10000A4AFA213020FFF763FD00BFBD4680BDAF
:101D200000DA000804A9000814A900082CA900087A
:101D300044A900084CA900085CA900086CA9000887
:101D400080B584B004AF384BDB88012B05D1374B0D
:101D50001B8801339AB2354B1A80334BDB89012B38
:101D600005D1324B1B88013B9AB2304B1A802F4B66
:101D70001A882F4BA3FB021359080B465B000B4438
:101D8000D31A9BB2022B34D0022B49DC002B02D099
:101D9000012B17D044E0002300934FF48273C82234
:101DA000E6216420FFF7D0F800230293102301936B
:101DB000002300934FF6FF731E4AE6216420FFF7CD
:101DC0000FFD2DE0002300934FF48273C822E6211B
:101DD0006420FFF7B9F80023029310230193002336
:101DE00000934FF6FF73144AE6216420FFF7F8FCD6
:101DF00016E0002300934FF48273C822E62164208A
:101E0000FFF7A2F80023029310230193002300930D
:101E10004FF6FF73094AE6216420FFF7E1FC00BF9B
:101E200000BFBD4680BD00BFE801002010000020BB
:101E3000ABAAAAAA80A9000888A9000890A900084E
:101E400080B584B004AF00230293202301930023C4
:101E500000934FF6FF73244A32212820FFF7C0FC7D
:101E60000023029320230193002300934FF6FF7376
:101E70001E4A64217820FFF7B3FC0023029310234D
:101E80000193002300934FF6FF73194AC8213220B3
:101E9000FFF7A6FCFFF754FF164B1B89012B1FD140
:101EA000154B01221A804FF6FF70FFF71BF8002335
:101EB00000936423F02200210020FFF745F800F092
:101EC000DFF80E4B1A880E4BA3FB021359080B4682
:101ED0005B000B44D31A9BB2002B01D000F09EF89C
:101EE00000BFBD4680BD00BF98A90008A0A900089A
:101EF000A8A90008E8010020C2020020100000206C
:101F0000ABAAAAAA80B400AF72B600BFFEE7000079
:101F100080B500AF05220349034802F0ADFB00BFC6
:101F200080BD00BFC40200204001002080B500AF8A
:101F300005220349034802F09FFB00BF80BD00BF9C
:101F4000C40200204001002080B400AF034B9B88F6
:101F50001846BD465DF8047B704700BFC4020020F0
:101F600080B400AF034BDB881846BD465DF8047BA8
:101F7000704700BFC402002080B400AF0A4B1B8929
:101F800007EE903AF8EE677A9FED087A67EE877A67
:101F90009FED077AC7EE876AF0EE667AB0EE670AC1
:101FA000BD465DF8047B7047C40200200000A543D5
:101FB00000F07F4580B582B000AF03460A46FB8043
:101FC0001346BB8007F0B2FA0246BB88591CFB8857
:101FD000CB1A92FBF3F101FB03F3D31A9AB2FB88FD
:101FE00013449BB218460837BD4680BD90B587B0F4
:101FF00002AFF860B9607A603B60FB6898B2BB687A
:1020000099B27B689AB23B689BB24FF61F0400946A
:10201000FEF79AFF00BF1437BD4690BD90B583B060
:1020200000AF0023FB7120E097F90730134A1B0132
:102030001344186897F90730104A1B0113440433FE
:10204000196897F907300D4A1B01134408331A68C1
:1020500097F90730094C1B0123440C331B68FFF729
:10206000C5FFFB790133DBB2FB7197F90730082B11
:10207000DADD00BF00BF0C37BD4690BD2C0000204C
:1020800090B583B002AF084B1888084B1988084BED
:102090001A88084B1B881F240094FEF755FF00BFC9
:1020A0000437BD4690BD00BF180000201A00002074
:1020B0001C0000201E00002080B582B002AF144B2F
:1020C00000221A804FF6FF70FEF70CFF114BA02282
:1020D0001A80114BBE221A80104BAA221A80104B74
:1020E000C8221A800F4B01221A8000230093642318
:1020F000F02200210020FEF727FFFFF7C1FF0A4B67
:102100001B88002B01D0FFF789FF00BFBD4680BDB3
:10211000AC050020180000201A0000201C00002040
:102120001E00002028000020CE02002080B584B0D0
:1021300004AF00230293102301934FF6FF73009323
:102140004FF47843304AAF213220FFF749FB2F4B41
:102150001B88092B0FD82D4B1A88102302934FF69A
:10216000FF7301934FF4784300930123AF21B9200B
:10217000FFF7DEF80EE0254B1A88102302934FF686
:10218000FF7301934FF4784300930223AF21B920EA
:10219000FFF7CEF800230293102301934FF6FF734D
:1021A000009300231A4AE6210A20FFF719FB0023B7
:1021B0000293102301934FF6FF7300930023154AF7
:1021C000FA210A20FFF70CFB002302931823019346
:1021D0004FF6E07300931F230F4A82213220FFF74E
:1021E000FFFA0A4B1A880D4B1B889A4203D9074BFA
:1021F0001A880A4B1A800A4B9B8A012B01D1FFF7E0
:102200005BFF00BFBD4680BDB8A90008AC0500203B
:10221000CCA90008E8A9000804AA0008AE0500201F
:10222000E801002090B484B000AF0446084611468F
:102230001A462346FB800346BB800B467B80134631
:102240003B803B7EFB73B8E0B7F9061097F90F208F
:10225000604813465B001344DB00034408331B68EB
:1022600099424BDBB7F9061097F90F2059481346EE
:102270005B001344DB0003440C331B6899423DDCD4
:10228000B7F9041097F90F20524813465B00134426
:10229000DB00034410331B6899420FDBB7F90410CD
:1022A00097F90F204B4813465B001344DB000344AF
:1022B00014331B68994201DC012386E0464B1B88DE
:1022C000184697F90F20434913465B001344DB007F
:1022D0000B4410331B68984268DB3F4B1B88184641
:1022E00097F90F203B4913465B001344DB000B4476
:1022F00014331B68984259DC012366E0B7F90210D9
:1023000097F90F20334813465B001344DB00034466
:1023100008331B6899424ADBB7F9021097F90F207E
:102320002C4813465B001344DB0003440C331B684A
:1023300099423CDCB7F9041097F90F202548134661
:102340005B001344DB00034410331B6899420FDB2E
:10235000B7F9041097F90F201E4813465B00134489
:10236000DB00034414331B68994201DC01232CE099
:10237000B7F9001097F90F20164813465B00134475
:10238000DB00034410331B68994210DBB7F90010DF
:1023900097F90F200F4813465B001344DB000344FA
:1023A00014331B68994202DC01230EE000BF97F949
:1023B0000F30DBB20133DBB2FB7397F90F30074A02
:1023C00012789342FFF640AF002318461037BD46FF
:1023D00090BC7047D40200201E000020D0020020D4
:1023E00090B585B002AF0446084611461A4623460A
:1023F000FB800346BB800B467B8013463B8097F9EE
:102400001830012B12D1B7F90030B7F90220B7F913
:102410000410B7F9060000240094FFF703FF0346F9
:10242000012B01D1012317E0002315E00C4B1B7891
:10243000032B10D9B7F90030B7F90220B7F904100F
:10244000B7F9060003240094FFF7ECFE0346012BC6
:1024500001D1012300E0002318460C37BD4690BD92
:10246000D002002090B583B002AF7C4B1B78002BCC
:102470004AD17B4B9B6F9BB2023B98B2784B5B6F10
:1024800099B2774B9B6F9AB2754BDB6F9BB24FF64D
:10249000FF740094FEF758FD714B1B6F023B704AAE
:1024A00013676F4B9B6F023B6D4A93676C4B1B6FBF
:1024B00098B26B4B5B6F99B2694B1B6F9BB2023347
:1024C0009AB2674BDB6F9BB24FF61F040094FEF786
:1024D0003BFD634B1B6F18B2614B5B6F19B2604BD6
:1024E0001B6F9BB20A339BB21AB25D4BDB6F1BB200
:1024F00001240094FFF774FF594B1B6F0A2B4DDC2E
:10250000564B01221A7049E0554B1B6F98B2544B41
:102510005B6F99B2524B1B6F9BB202339AB2504B16
:10252000DB6F9BB24FF6FF740094FEF70DFD4C4B32
:102530001B6F02334A4A1367494B9B6F0233484A69
:102540009367474B9B6F9BB2023B98B2444B5B6FC8
:1025500099B2434B9B6F9AB2414BDB6F9BB24FF6E4
:102560001F040094FEF7F0FC3D4B9B6F9BB20A3BAF
:102570009BB218B23A4B5B6F19B2394B9B6F1AB2D0
:10258000374BDB6F1BB201240094FFF729FF344B5C
:102590009B6FE52B02DD314B00221A70314B1B780B
:1025A000002B63D12E4BD3F8803098B22C4BD3F84C
:1025B0008C309BB2023B99B2294BD3F888309AB247
:1025C000274BD3F88C309BB24FF6FF740094FEF784
:1025D000BBFC234BD3F88430023B214AC2F8843041
:1025E0001F4BD3F88C30023B1D4AC2F88C301C4B79
:1025F000D3F8803098B21A4BD3F8843099B2184B84
:10260000D3F888309AB2164BD3F884309BB2023399
:102610009BB24FF61F040094FEF796FC104B1B6F05
:1026200018B20F4B5B6F19B20D4B9B6F1AB20C4B6C
:102630005B6F9BB20A339BB21BB201240094FFF77D
:10264000CFFE074BD3F88430074AB2F900209342FB
:1026500064DC044B01221A7060E000BFA505002075
:102660002C000020A6050020160000202D4BD3F8DA
:10267000803098B22B4BD3F8843099B2294BD3F8E1
:1026800088309AB2274BD3F884309BB202339BB286
:102690004FF6FF740094FEF757FC224BD3F88430BA
:1026A0000233204AC2F884301E4BD3F88C300233F8
:1026B0001C4AC2F88C301B4BD3F8803098B2194BAF
:1026C000D3F88C309BB2023B99B2164BD3F88830CA
:1026D0009AB2144BD3F88C309BB24FF61F0400947F
:1026E000FEF732FC0F4B1B6F18B20E4BDB6F9BB229
:1026F0000A3B9BB219B20B4B9B6F1AB2094BDB6FB3
:102700001BB201240094FFF76BFE064BD3F88C300C
:10271000B3F59B7F02DB044B00221A7000BF043725
:10272000BD4690BD2C000020A605002080B483B0DB
:1027300000AF584B1B88002B01D10023A3E00023DE
:10274000FB719AE0544B1B88194697F90730534A9E
:102750001B0113441B6899423FDB4F4B1B881946F2
:1027600097F907304D4A1B01134408331B689942FF
:1027700033DC4B4B1B88194697F90730474A1B013E
:10278000134404331B6899420DDB454B1B881946E3
:1027900097F90730414A1B0113440C331B689942D7
:1027A00001DC01236FE03F4B1B88194697F9073086
:1027B0003A4A1B01134404331B68994258DB394BD6
:1027C0001B88194697F90730344A1B0113440C3310
:1027D0001B6899424CDC012355E0334B1B8819469A
:1027E00097F907302D4A1B0113441B68994240DBBF
:1027F0002D4B1B88194697F90730284A1B011344B3
:1028000008331B68994234DC254B1B88194697F91D
:102810000730224A1B01134404331B6899420DDB25
:102820001F4B1B88194697F907301C4A1B0113449C
:102830000C331B68994201DC012324E0194B1B88EF
:10284000194697F90730154A1B01134404331B68D6
:1028500099420EDB134B1B88194697F907300F4A34
:102860001B0113440C331B68994202DC01230AE06C
:1028700000BFFB790133DBB2FB7197F90730082BFE
:102880007FF760AF002318460C37BD465DF8047B28
:10289000704700BFCE020020180000202C0000204E
:1028A0001A0000201E0000201C000020B0B584B0DB
:1028B00002AF814B5B78002B40F08D807E4B5B68D4
:1028C0007E4A12889342C0F25A817B4B1B78002BC0
:1028D0001CD1794B9B6898B2774B5B699AB2784B65
:1028E0001B88D31A99B2744BDB689AB2724B5B693E
:1028F0009BB24FF6FF740094FEF726FB6E4B5B69AC
:102900006F4A12889B1A6C4A536138E16A4B1B78F4
:10291000012B1DD1684B9B6898B2674B1B6999B21C
:10292000654BDB689CB2644B1B699AB2644B1B8895
:1029300013449BB24FF6FF7200922246FEF704FB4F
:102940005D4B1B695E4A128813445B4A136116E1B2
:10295000594B1B78022B1CD1574BDB689AB2584B52
:102960001B88D31A98B2544B1B6999B2524BDB683F
:102970009AB2514B5B699BB24FF6FF740094FEF71D
:10298000E3FA4D4BDB684E4A12889B1A4A4AD360E1
:10299000F5E0494B1B78032B40F0F180464B9B68D8
:1029A00098B2454B1B6999B2434B9B689AB2444B12
:1029B0001B8813449AB2404B5B699BB24FF6FF747D
:1029C0000094FEF7C1FA3C4B9B683D4A12881344C1
:1029D000394A9360D3E0384B5B78012B40F0CF80CD
:1029E000354B5B68364A12889B1A334A5360324B28
:1029F0001B78002B1CD1304B9B6898B22E4B5B6927
:102A00009AB22F4B1B88D31A99B22B4BDB689AB220
:102A1000294B5B699BB24FF6FF740094FEF794FA62
:102A2000254B5B69264A12889B1A234A536169E049
:102A3000214B1B78012B1DD11F4B9B6898B21E4B5D
:102A40001B6999B21C4BDB689CB21B4B1B699AB289
:102A50001B4B1B8813449BB24FF6FF720092224619
:102A6000FEF772FA144B1B69154A12881344124A76
:102A7000136147E0104B1B78022B23D10E4BDB6810
:102A80009AB20F4B1B88D31A98B20B4B1B6999B2A1
:102A9000094BDB689AB2084B5B699BB24FF6FF7437
:102AA0000094FEF751FA044BDB68054A12889B1A22
:102AB000014AD36026E000BFD40200202400002099
:102AC00026000020304B1B78032B1BD12E4B9B681C
:102AD00098B22D4B1B6999B22B4B9B689AB22B4B2A
:102AE0001B8813449AB2284B5B699BB24FF6FF7464
:102AF0000094FEF729FA244B9B68244A1288134459
:102B0000214A9360224B1B78002B38D11E4B5B6807
:102B1000002B03D01C4B5B68002B30DA1C4B0122CE
:102B20001A70FFF7C3FE1A4B00221A700023FB71C4
:102B300019E0FB795A1CF97913480B465B000B44EA
:102B4000DB001844104913465B001344DB000B44C0
:102B500004461D460FCD0FC495E8030084E803002A
:102B6000FB790133FB71FA790A4B1B78013B9A42DE
:102B7000DFDB084B1B78013BDAB2064B1A7000BF53
:102B80000837BD46B0BD00BFD4020020260000209B
:102B9000A4050020D002002090B583B002AF754B91
:102BA0001B78032B37D1744B1B785A1E734913467D
:102BB0005B001344DB000B4404331B68704A12882B
:102BC000934219DC6C4B1B785A1E6C4913465B0010
:102BD0001344DB000B4404331B686A4A1288114615
:102BE000654A1278013A1944644813465B0013445D
:102BF000DB00034404331960634B19885E4B1B7878
:102C00005A1E08465D4913465B001344DB000B4423
:102C10000C33186089E0584B1B78002B03D1574BBD
:102C200000225A700BE0544B1B785A1E534913462E
:102C30005B001344DB000B44013301221A704E4B3E
:102C40001B7819464D4A0B465B000B44DB001344CE
:102C5000013300221A704A4B1A884C4B1B889A4247
:102C60000ED1474B1A88444B1B7819461046434AED
:102C70000B465B000B44DB001344043318600BE08D
:102C80003D4B1B7819463D4A0B465B000B44DB006D
:102C90001344043300221A60374B1B781946374A15
:102CA0000B465B000B44DB00134403221A70384BC5
:102CB0001A88314B1B7819461046304A0B465B0088
:102CC0000B44DB001344083318602F4B1A882A4B3F
:102CD0001B7819461046294A0B465B000B44DB0063
:102CE00013440C3318602B4B1A88234B1B7819465E
:102CF0001046224A0B465B000B44DB0013441033A2
:102D00001860254B1A881C4B1B78194610461B4A25
:102D10000B465B000B44DB00134414331860164B66
:102D20001B780133DAB2144B1A70124B03221A705B
:102D3000174B1A88134B1B8813449AB2144B1A80F2
:102D4000114B1A880F4B1B8813449AB20E4B1A80F2
:102D50000F4B18880F4B19880B4B1A880E4B1B888A
:102D60001F240094FEF7F0F8FFF7A0FD00BF043722
:102D7000BD4690BD21000020D0020020D4020020DA
:102D800024000020260000201C000020220000203B
:102D9000180000201A0000201E00002090B583B00B
:102DA00002AF754B1B78022B37D1744B1B785A1E20
:102DB000734913465B001344DB000B4404331B6868
:102DC000704A1288934219DC6C4B1B785A1E6C496E
:102DD00013465B001344DB000B4404331B686A4A50
:102DE00012881146654A1278013A1944644813461C
:102DF0005B001344DB00034404331960634B198800
:102E00005E4B1B785A1E08465D4913465B0013440F
:102E1000DB000B440833186089E0584B1B78002B0B
:102E200003D1574B00225A700BE0544B1B785A1EAB
:102E3000534913465B001344DB000B44013301226A
:102E40001A704E4B1B7819464D4A0B465B000B44DB
:102E5000DB001344013300221A704A4B1A884C4B92
:102E60001B889A420ED1474B1A88444B1B7819464F
:102E70001046434A0B465B000B44DB00134404330B
:102E800018600BE03D4B1B7819463D4A0B465B0032
:102E90000B44DB001344043300221A60374B1B78C9
:102EA0001946374A0B465B000B44DB0013440222F1
:102EB0001A70364B1A88314B1B7819461046304A27
:102EC0000B465B000B44DB00134408331860314BA6
:102ED0001A882A4B1B7819461046294A0B465B0074
:102EE0000B44DB0013440C3318602B4B1A88234B24
:102EF0001B7819461046224A0B465B000B44DB0048
:102F0000134410331860254B1A881C4B1B78194644
:102F100010461B4A0B465B000B44DB001344143382
:102F20001860164B1B780133DAB2144B1A70124B2F
:102F300002221A70154B1A88134B1B88D31A9AB2A7
:102F4000124B1A80134B1A880F4B1B88D31A9AB254
:102F5000104B1A800D4B18880F4B19880D4B1A888F
:102F60000E4B1B881F240094FDF7EEFFFFF79EFC1D
:102F700000BF0437BD4690BD21000020D0020020D4
:102F8000D402002024000020260000201800002089
:102F9000220000201C0000201A0000201E0000203B
:102FA00090B583B002AF7B4B1B78002B43D17A4B9B
:102FB0001B785A1E794913465B001344DB000B440F
:102FC00004331B68764A1288934219DC724B1B78D3
:102FD0005A1E724913465B001344DB000B44043352
:102FE0001B68704A128811466B4A1278013A1944DC
:102FF0006A4813465B001344DB0003440433196042
:10300000654B1B785A1E654913465B001344DB0071
:103010000B4410331B68644A128811465E4A1278CA
:10302000013A591A5D4813465B001344DB00034420
:103030001033196089E0584B1B78002B03D1574B94
:1030400000225A700BE0544B1B785A1E534913460A
:103050005B001344DB000B44013301221A704E4B1A
:103060001B7819464D4A0B465B000B44DB001344AA
:10307000013300221A704A4B1A884C4B1B889A4223
:103080000ED1474B1A88444B1B7819461046434AC9
:103090000B465B000B44DB001344043318600BE069
:1030A0003D4B1B7819463D4A0B465B000B44DB0049
:1030B0001344043300221A60374B1B781946374AF1
:1030C0000B465B000B44DB00134400221A70384BA4
:1030D0001A88314B1B7819461046304A0B465B0064
:1030E0000B44DB00134408331860324B1A882A4B18
:1030F0001B7819461046294A0B465B000B44DB003F
:1031000013440C331860284B1A88234B1B7819463C
:103110001046224A0B465B000B44DB00134410337D
:103120001860254B1A881C4B1B78194610461B4A01
:103130000B465B000B44DB00134414331860164B42
:103140001B780133DAB2144B1A70124B00221A703A
:10315000154B1A88134B1B88D31A9AB2124B1A803C
:10316000154B1A880F4B1B88D31A9AB2124B1A8030
:103170000F4B18880C4B19880E4B1A880E4B1B8866
:103180001F240094FDF7E0FEFFF790FB00BF04371B
:10319000BD4690BD21000020D0020020D4020020B6
:1031A00024000020260000201A0000202200002019
:1031B000180000201C0000201E00002090B583B0E5
:1031C00002AF754B1B78012B37D1744B1B785A1EFD
:1031D000734913465B001344DB000B4404331B6844
:1031E000704A1288934219DC6C4B1B785A1E6C494A
:1031F00013465B001344DB000B4404331B686A4A2C
:1032000012881146654A1278013A194464481346F7
:103210005B001344DB00034404331960634B1988DB
:103220005E4B1B785A1E08465D4913465B001344EB
:10323000DB000B441433186089E0584B1B78002BDB
:1032400003D1574B00225A700BE0544B1B785A1E87
:10325000534913465B001344DB000B440133012246
:103260001A704E4B1B7819464D4A0B465B000B44B7
:10327000DB001344013300221A704A4B1A884C4B6E
:103280001B889A420ED1474B1A88444B1B7819462B
:103290001046434A0B465B000B44DB0013440433E7
:1032A00018600BE03D4B1B7819463D4A0B465B000E
:1032B0000B44DB001344043300221A60374B1B78A5
:1032C0001946374A0B465B000B44DB0013440122CE
:1032D0001A70384B1A88314B1B7819461046304A01
:1032E0000B465B000B44DB00134408331860324B81
:1032F0001A882A4B1B7819461046294A0B465B0050
:103300000B44DB0013440C3318602C4B1A88234BFE
:103310001B7819461046224A0B465B000B44DB0023
:10332000134410331860214B1A881C4B1B78194624
:1033300010461B4A0B465B000B44DB00134414335E
:103340001860164B1B780133DAB2144B1A70124B0B
:1033500001221A70194B1A88134B1B8813449AB216
:10336000164B1A80114B1A880F4B1B8813449AB2C4
:103370000E4B1A800F4B1888104B19880E4B1A8869
:103380000A4B1B881F240094FDF7DEFDFFF78EFA21
:1033900000BF0437BD4690BD21000020D0020020B0
:1033A000D402002024000020260000201E0000205F
:1033B00022000020180000201C0000201A0000201D
:1033C00090B583B002AF0F4B01221A800E4B1B88C1
:1033D00001339AB20C4B1A800C4B18880C4B19888D
:1033E0000A4B1B8805339AB2094B1B8805339BB2E5
:1033F0004FF6FF740094FDF7A7FD00BF0437BD46EC
:1034000090BD00BF28000020AC050020A8050020CA
:10341000AA05002090B583B002AF804B1B88012B1A
:1034200030D17F4BB3F900309BB2053B9BB21946BC
:103430000020FEF7BFFD03461A467A4B1A807A4BEE
:10344000B3F900309BB2053B9BB219466420FEF7EE
:10345000B1FD03461A46754B1A80724B1888734BA0
:103460001988704B1B8805339AB2704B1B88053343
:103470009BB24FF478440094FDF766FD674B002241
:103480001A80C7E06A4B1A88664B1B889A422AD179
:10349000684B1A88654B1B889A4207D3654B1B887B
:1034A0001A46624B1B8805339A421ADD624B1A8812
:1034B0005E4B1B889A4207D35F4B1B881A465B4BB7
:1034C0001B8805339A420CDD5A4B1A88574B1B88D0
:1034D0009A4208D8554B1B880433574A12889342A6
:1034E00001DAFFF76DFF554B1B881A464D4B1B88C1
:1034F00005339A422AD14F4B1A884C4B1B889A426B
:1035000007D34C4B1B881A46484B1B8805339A42FD
:103510001ADD494B1A88454B1B889A4207D3464B04
:103520001B881A46414B1B8805339A420CDD414BE0
:103530001A883E4B1B889A4208D83C4B1B880433A0
:103540003D4A1288934201DAFFF73AFF3A4B1A8854
:10355000364B1B889A422AD1384B1A88314B1B882C
:103560009A4207D3354B1B881A462E4B1B880533CE
:103570009A421ADD2E4B1A882A4B1B889A4207D38F
:103580002B4B1B881A46274B1B8805339A420CDDB0
:103590002A4B1A88234B1B889A4208D8214B1B8838
:1035A0000433234A1288934201DAFFF709FF214BC3
:1035B0001B881A461D4B1B8805339A422AD11F4B84
:1035C0001A88184B1B889A4207D31C4B1B881A4633
:1035D000144B1B8805339A421ADD154B1A88114B80
:1035E0001B889A4207D3124B1B881A460D4B1B8827
:1035F00005339A420CDD114B1A880A4B1B889A42FC
:1036000008D8084B1B880433094A1288934201DA10
:10361000FFF7D6FE00BF0437BD4690BD280000204E
:1036200012000020A805002014000020AA05002098
:103630001C0000201A0000201E000020180000209E
:1036400090B583B002AF594B1B88002B43D0574B2A
:103650001B881A46564BB3F900309A423BD0554B63
:103660001B88002B37D0534B1B881A46504BB3F99D
:1036700000309A422FD0504B1B88642B2BD04E4BDE
:103680001B881A464D4BB3F900309A4223D04C4B5D
:103690001B88642B1FD04A4B1B881A46474BB3F933
:1036A00000309A4217D0FFF741F80346012B12D0A1
:1036B0003E4B1B8818B2404B1B8819B23D4B1B88F0
:1036C0001AB23F4B1B881BB200240094FEF788FE01
:1036D0000346012B02D1FEF729FD64E00022002100
:1036E0000020FEF779F9002201210020FEF774F98D
:1036F000344B1B88344AA2FB0323DB089BB2002215
:1037000002211846FEF768F92E4B1A882E4BA3FBB0
:103710000213D9080B469B000B445B00D31A9BB2E3
:10372000002203211846FEF757F9FFF773FE274BD7
:103730001B88022B01D1FEF795FE254B9B89012B9F
:1037400003D1244B00221A7016E0214B9B8B012BD6
:1037500003D1204B01221A700EE01D4BDB8A012B96
:1037600003D11C4B03221A7006E0194B5B8A012B14
:1037700002D1184B02221A70164B1B78032B0CD067
:10378000032B0DDC002B02D0012B03D008E0FFF748
:1037900007FC08E0FFF712FD05E0FFF7FDF902E086
:1037A000FFF7FCFA00BF0437BD4690BD18000020AB
:1037B000120000201C0000201A000020140000202D
:1037C0001E000020AC050020CDCCCCCCCE020020C9
:1037D000E80100202000002080B586B004AF034639
:1037E000FB804C4AFB881380002302931023019333
:1037F000002300934FF6FF73474A0A210A20FDF782
:10380000EFFF0023029310230193002300934FF650
:10381000FF73424A1E210A20FDF7E2FF404B1B883E
:10382000092B0ED83E4B1A881023029300230193D4
:103830004FF6FF73009301231E21A420FDF778FDAE
:103840000DE0374B1A8810230293002301934FF6A3
:10385000FF73009302231E21A420FDF769FD0023BE
:10386000029310230193002300934FF6FF732D4A18
:1038700032210A20FDF7B4FF2B4B1B88092B0ED8F1
:10388000294B1A8810230293002301934FF6FF73EC
:10389000009301233221AD20FDF74AFD0DE0224BBC
:1038A0001A8810230293002301934FF6FF730093AD
:1038B00002233221AD20FDF73BFD002302931023AC
:1038C0000193002300934FF6FF73184A46210A2004
:1038D000FDF786FFFA8810230293002301934FF629
:1038E000FF730093012346214620FDF721FD104B75
:1038F000B3F900309AB20F4BB3F900309BB24FF4DA
:103900007841009164210020FDF7EFFB00BF0837EC
:10391000BD4680BDCE02002014AA000824AA0008DB
:10392000AC0500203CAA0008AE05002054AA0008FF
:10393000120000201400002080B500AF034803F0FF
:10394000B3FD034803F048FD00BF80BD60060020C2
:103950001806002080B483B000AF0346FB80084AFD
:10396000FB881380064B1A88064B1A80064B0022F0
:103970001A8000BF0C37BD465DF8047B704700BF5E
:10398000B4050020B2050020B005002080B483B04B
:1039900000AF0346FB80084AFB881380064B1A8859
:1039A000064B1A80064B00221A8000BF0C37BD461A
:1039B0005DF8047B704700BFBA050020B805002001
:1039C000B605002080B582B000AF78607B681B68C8
:1039D000B3F1804F2BD1184B1B88002B10D0164B06
:1039E0001B88013B9AB2144B1A80134B1B88002B87
:1039F00006D1124B01221A80114B1A880E4B1A80E5
:103A0000104B1B88002B10D00E4B1B88013B9AB229
:103A10000C4B1A800B4B1B88002B06D10A4B012242
:103A20001A800A4B1A88074B1A80FDF749FF00BF1E
:103A30000837BD4680BD00BFB2050020B00500209C
:103A4000B4050020B8050020B6050020BA05002006
:103A500080B500AF174B184A1A60164B4FF48272AC
:103A60005A60144B00229A60124B0022DA60114B0C
:103A700000221A610F4B00225A610E4B4FF4007264
:103A80009A610C4B0022DA610A4B00221A62094B40
:103A900000225A62074B00229A62064B0A22DA621F
:103AA000044802F05DFE0346002B01D0FEF72AFA1F
:103AB00000BF80BDBC0500200030014080B58AB049
:103AC00000AF786007F1140300221A605A609A6010
:103AD000DA601A617B681B68194A93422BD1002374
:103AE0003B61184B5B6C174A43F480535364154B8E
:103AF0005B6C03F480533B613B690023FB60114B1B
:103B00001B6B104A43F0020313630E4B1B6B03F055
:103B10000203FB60FB6838237B610223BB61002347
:103B2000FB6103233B6205237B6207F11403194603
:103B3000054801F083FE00BF2837BD4680BD00BFA9
:103B400000300140003802400004024080B483B0DD
:103B500000AF00237B60104B5B6C0F4A43F4804343
:103B600053640D4B5B6C03F480437B607B680023E4
:103B70003B60094B1B6C084A43F080531364064BAF
:103B80001B6C03F080533B603B6800BF0C37BD46A5
:103B90005DF8047B704700BF0038024080B400AF7E
:103BA000FEE780B400AFFEE780B400AFFEE780B46C
:103BB00000AFFEE780B400AFFEE780B400AF00BF07
:103BC000BD465DF8047B704780B400AF00BFBD46C2
:103BD0005DF8047B704780B400AF00BFBD465DF860
:103BE000047B704780B500AF00F0BEFC00BF80BD15
:103BF00080B500AF024803F020FD00BF80BD00BFCC
:103C00006006002080B500AF024804F05BFC00BFF6
:103C100080BD00BFF406002080B500AF024804F06C
:103C200051FC00BF80BD00BF3807002080B500AF49
:103C3000024801F099FB00BF80BD00BF8801002051
:103C400080B400AF01231846BD465DF8047B704781
:103C500080B582B000AF7860396005F03BFE034666
:103C600016221A604FF0FF3318460837BD4680BD54
:103C700080B582B000AF78604FF0FF317868FFF711
:103C8000E7FFFEE780B586B000AFF860B9607A6004
:103C900000237B610AE0AFF300800146BB685A1C39
:103CA000BA60CAB21A707B6901337B617A697B683A
:103CB0009A42F0DB7B6818461837BD4680BD80B558
:103CC00086B000AFF860B9607A6000237B6109E0DC
:103CD000BB685A1CBA601B781846AFF300807B693A
:103CE00001337B617A697B689A42F1DB7B68184615
:103CF0001837BD4680BD80B483B000AF78604FF008
:103D0000FF3318460C37BD465DF8047B704780B41E
:103D100083B000AF786039603B684FF400525A605E
:103D2000002318460C37BD465DF8047B704780B40D
:103D300083B000AF7860012318460C37BD465DF8AC
:103D4000047B704780B485B000AFF860B9607A60DA
:103D5000002318461437BD465DF8047B7047000009
:103D600080B586B000AF7860144A154BD31A7B61DA
:103D70007B693B61134B1B68002B02D1114B124A2C
:103D80001A60104B1A687B6813443A699A4207D24A
:103D900005F0A0FD03460C221A604FF0FF3309E046
:103DA000084B1B68FB60074B1A687B681344054A85
:103DB0001360FB6818461837BD4680BD000002201E
:103DC0000004000014060020D008002080B400AFDA
:103DD000064BD3F88830054A43F47003C2F88830A4
:103DE00000BFBD465DF8047B704700BF00ED00E0FA
:103DF00080B586B000AF07F1080300221A605A6050
:103E00009A60DA603B4600221A605A601E4B1F4AD5
:103E10001A601D4B53225A601B4B00229A601A4BAA
:103E20004FF6FF72DA60184B00221A61164B00221F
:103E30005A61154B00229A61134803F07DFA03463C
:103E4000002B01D0FEF75EF84FF48053BB6007F102
:103E5000080319460C4803F0BBFD0346002B01D0B4
:103E6000FEF750F800233B6000237B603B46194679
:103E7000054804F087F90346002B01D0FEF742F80D
:103E800000BF1837BD4680BD180600200000014065
:103E900080B586B000AF07F1080300221A605A60AF
:103EA0009A60DA603B4600221A605A601D4B4FF060
:103EB00080421A601B4B40F247325A60194B002275
:103EC0009A60184B6322DA60164B00221A61154B78
:103ED00000229A61134803F02FFA0346002B01D009
:103EE000FEF710F84FF48053BB6007F10803194642
:103EF0000C4803F06DFD0346002B01D0FEF702F8DD
:103F000000233B6000237B603B461946054804F0D4
:103F100039F90346002B01D0FDF7F4FF00BF183735
:103F2000BD4680BD6006002080B588B000AF3B1D57
:103F300000221A605A609A60DA601A615A619A61C6
:103F40001E4B1F4A1A601D4B40F247325A601B4BF2
:103F500000229A60194B6322DA60184B00221A6122
:103F6000164B00229A61154803F0E6F90346002B30
:103F700001D0FDF7C7FF114803F006FB0346002BF5
:103F800001D0FDF7BFFF60237B600023BB600023EF
:103F9000FB6000237B613B1D00221946074803F0AC
:103FA00055FC0346002B01D0FDF7ACFF034800F0A1
:103FB0005BF800BF2037BD4680BD00BFA8060020CB
:103FC000001C004080B586B000AF78607B681B683D
:103FD000224A93420ED100237B61214B5B6C204A25
:103FE00043F0010353641E4B5B6C03F001037B61E0
:103FF0007B692EE07B681B68B3F1804F16D10023EC
:104000003B61174B1B6C164A43F001031364144BBE
:104010001B6C03F001033B613B69002200211C2063
:1040200000F0D3FF1C2000F0ECFF12E07B681B685F
:104030000C4A93420DD10023FB60094B1B6C084ACC
:1040400043F080031364064B1B6C03F08003FB609A
:10405000FB6800BF1837BD4680BD00BF00000140AF
:1040600000380240001C004080B588B000AF786086
:1040700007F10C0300221A605A609A60DA601A6134
:104080007B681B68124A93421ED10023BB60114B10
:104090001B6B104A43F0200313630E4B1B6B03F0A2
:1040A0002003BB60BB684FF48073FB6002233B615D
:1040B00000237B610023BB610923FB6107F10C0333
:1040C0001946054801F0BAFB00BF2037BD4680BD48
:1040D000001C0040003802400014024080B500AFD0
:1040E00001220649064804F0BCF901224FF4806120
:1040F000044801F03FFD00BF80BD00BFF106002075
:10410000380700200014024080B582B000AF78600C
:104110000B467B807A880A237968034804F00FF9FC
:1041200000BF0837BD4680BD3807002080B582B08B
:1041300000AF78607B681B68194A93420AD10A2352
:1041400001221849184804F0FAF8012215491648C6
:1041500004F087F97B681B68144A93421BD1144B07
:104160001B784F2B03D1134B01221A700EE0104B1A
:104170001B78612B03D1104B00221A7006E00C4B08
:104180001B78412B02D10C4B01221A7001220849E5
:104190000A4804F066F900BF0837BD4680BD00BF7D
:1041A00000100140F0060020F4060020004400400A
:1041B000F1060020F2060020C0020020380700208F
:1041C00080B5ADF5247D00AF364BC7F88C32364A4A
:1041D00007F516731068516803C307F518732A2290
:1041E0000021184605F019FBFDF7C6FEF0EE407AF7
:1041F000FCEEE77A17EE903A9BB207F5C8702B4AAF
:10420000C82105F093FA07F5C87207F51673114631
:10421000184605F00AFB07F51673D7F88C121846F6
:1042200005F003FBFDF790FE034607F1C8001F4AA7
:10423000C82105F07BFA07F1C80207F5167311468D
:10424000184605F0F2FA07F51673D7F88C121846DF
:1042500005F0EBFAFDF784FE03463846134AC82101
:1042600005F064FA3A4607F516731146184605F04C
:10427000DCFA07F51673D7F88C12184605F0D5FA54
:1042800007F516731846FBF7A3FF03469AB207F526
:10429000167311461846FFF737FF00BF07F524775E
:1042A000BD4680BD74AA000878AA000868AA000864
:1042B00080B500AF114B124A1A60104B4FF4E13237
:1042C0005A600E4B00229A600C4B0022DA600B4BB6
:1042D00000221A61094B0C225A61084B00229A6194
:1042E000064B0022DA61054803F0DCFF0346002B91
:1042F00001D0FDF707FE00BF80BD00BFF40600201F
:104300000010014080B500AF114B124A1A60104BEB
:104310004FF4E1325A600E4B00229A600C4B00229F
:10432000DA600B4B00221A61094B0C225A61084BD0
:1043300000229A61064B0022DA61054803F0B2FFC1
:104340000346002B01D0FDF7DDFD00BF80BD00BF9F
:10435000380700200044004080B58CB000AF786082
:1043600007F11C0300221A605A609A60DA601A6131
:104370007B681B683A4A934235D10023BB61394BB5
:104380005B6C384A43F010035364364B5B6C03F0AC
:104390001003BB61BB6900237B61324B1B6B314A4D
:1043A00043F0010313632F4B1B6B03F001037B618D
:1043B0007B694FF4C063FB6102233B6200237B6295
:1043C0000323BB620723FB6207F11C03194626483F
:1043D00001F034FA00220021252000F0F6FD25200E
:1043E00000F00FFE38E07B681B68204A934233D10F
:1043F00000233B611B4B1B6C1A4A43F400331364CC
:10440000184B1B6C03F400333B613B690023FB60DA
:10441000144B1B6B134A43F001031363114B1B6BCB
:1044200003F00103FB60FB680C23FB6102233B628A
:1044300000237B620323BB620723FB6207F11C039B
:104440001946094801F0FAF900220021262000F05F
:10445000BCFD262000F0D5FD00BF3037BD4680BD35
:1044600000100140003802400000024000440040BB
:10447000DFF834D00D480E490E4A002302E0D4582C
:10448000C4500433C4188C42F9D30B4A0B4C00239C
:1044900001E013600432A242FBD3FFF797FC05F062
:1044A0001FFAFDF7BDFA704700000220000000204F
:1044B00024010020581A010824010020CC08002003
:1044C000FEE7000080B500AF0E4B1B680D4A43F4B9
:1044D000007313600B4B1B680A4A43F4806313603C
:1044E000084B1B68074A43F480731360032000F0F5
:1044F00061FD0F2000F008F8FFF728FB00231846A5
:1045000080BD00BF003C024080B582B000AF786043
:10451000124B1A68124B1B7819464FF47A73B3FB8F
:10452000F1F3B2FBF3F3184600F079FD0346002BDC
:1045300001D001230EE07B680F2B0AD80022796896
:104540004FF0FF3000F041FD064A7B681360002306
:1045500000E0012318460837BD4680BDBC0000209E
:10456000C4000020C000002080B400AF064B1B78C0
:104570001A46064B1B681344044A136000BFBD462D
:104580005DF8047B704700BFC40000207C0700205A
:1045900080B400AF034B1B681846BD465DF8047B32
:1045A000704700BF7C07002080B584B000AF786002
:1045B000FFF7EEFFB8607B68FB60FB68B3F1FF3F7D
:1045C00005D00A4B1B781A46FB681344FB6000BFFA
:1045D000FFF7DEFF0246BB68D31AFA689A42F7D8A3
:1045E00000BF00BF1037BD4680BD00BFC400002023
:1045F00080B584B000AF78600023FB737B68002B2C
:1046000001D1012333E07B681B6C002B09D1786852
:10461000FCF73EF87B6800225A647B68002283F82E
:104620003C207B681B6C03F01003002B18D17B68C7
:104630001B6C23F4885323F0020343F002027B68CF
:104640001A64786800F068FA7B6800225A647B6814
:104650001B6C23F0030343F001027B681A6401E042
:104660000123FB737B68002283F83C20FB7B184608
:104670001037BD4680BD000080B586B000AFF86041
:10468000B9607A6000233B61FB6893F83C30012BF2
:1046900001D10223E9E0FB68012283F83C20FB689A
:1046A0001B689B6803F00103012B18D0FB681B6893
:1046B0009A68FB681B6842F001029A606D4B1B68A8
:1046C0006D4AA2FB03239A0C13465B0013443B6123
:1046D00002E03B69013B3B613B69002BF9D1FB6880
:1046E0001B689B6803F48073B3F5807F07D1FB6878
:1046F0001B689A68FB681B6822F480729A60FB68EA
:104700001B689B6803F00103012B40F0A180FB684C
:104710001B6C23F4E06323F0010343F48072FB6815
:104720001A64FB681B685B6803F48063002B07D086
:10473000FB681B6C23F4405343F48052FB681A64FB
:10474000FB681B6C03F48053B3F5805F06D1FB68F4
:104750005B6C23F00602FB685A6402E0FB680022EF
:104760005A64FB68002283F83C20444B7B61FB6861
:104770009B6B434ADA63FB689B6B424A1A64FB6893
:104780009B6B414ADA64FB681B686FF022021A6077
:10479000FB681B685A68FB681B6842F080625A60BD
:1047A000FB681B689A68FB681B6842F480729A6019
:1047B000FB68986BFB681B684C331946BA687B68CA
:1047C00000F0E8FC7B695B6803F01F03002B2AD133
:1047D000FB681B682D4A934215D0FB681B682C4A66
:1047E000934205D1254B5B6803F01F03002B0AD0D1
:1047F000FB681B68274A934236D1204B5B6803F065
:104800001003002B30D1FB681B689B6803F04053FA
:10481000002B29D1FB681B689A68FB681B6842F073
:1048200080429A6020E0FB681B68184A93421BD1C3
:10483000FB681B689B6803F04053002B14D1FB6896
:104840001B689A68FB681B6842F080429A600BE024
:10485000FB681B6C43F01002FB681A64FB685B6C1E
:1048600043F00102FB685A64002318461837BD461E
:1048700080BD00BFBC00002083DE1B43002301403D
:10488000114D0008CB4D0008E74D00080020014005
:10489000002101400022014080B483B000AF786065
:1048A00000BF0C37BD465DF8047B704780B483B011
:1048B00000AF786000BF0C37BD465DF8047B7047E1
:1048C00080B483B000AF786000BF0C37BD465DF8A0
:1048D000047B704780B485B000AF786039600023F6
:1048E000BB607B6893F83C30012B01D1022305E1CA
:1048F0007B68012283F83C203B681B68092B25D983
:104900007B681B68D9683B681B689BB21A461346D4
:104910005B0013441E3B072202FA03F3DA437B6871
:104920001B680A40DA607B681B68D9683B689A6834
:104930003B681B689BB2184603465B0003441E3B62
:104940009A407B681B680A43DA6022E07B681B6838
:1049500019693B681B689BB21A4613465B001344F7
:10496000072202FA03F3DA437B681B680A401A61E4
:104970007B681B6819693B689A683B681B689BB237
:10498000184603465B0003449A407B681B680A4351
:104990001A613B685B68062B24D87B681B68596BDF
:1049A0003B685A6813469B001344053B1F2202FADA
:1049B00003F3DA437B681B680A405A637B681B6811
:1049C000596B3B681B689BB218463B685A68134694
:1049D0009B001344053B00FA03F27B681B680A4303
:1049E0005A634CE03B685B680C2B24D87B681B68DF
:1049F000196B3B685A6813469B001344233B1F22E4
:104A000002FA03F3DA437B681B680A401A637B6887
:104A10001B68196B3B681B689BB218463B685A6859
:104A200013469B001344233B00FA03F27B681B6888
:104A30000A431A6323E07B681B68D96A3B685A689B
:104A400013469B001344413B1F2202FA03F3DA434F
:104A50007B681B680A40DA627B681B68D96A3B681E
:104A60001B689BB218463B685A6813469B00134468
:104A7000413B00FA03F27B681B680A43DA62224B6F
:104A8000FB607B681B68214A934209D13B681B6825
:104A9000122B05D1FB685B6843F48002FB685A6007
:104AA0007B681B68194A934223D13B681B68102B13
:104AB00003D03B681B68112B1BD1FB685B6843F478
:104AC0000002FB685A603B681B68102B11D1104B29
:104AD0001B68104AA2FB03239A0C13469B00134445
:104AE0005B00BB6002E0BB68013BBB60BB68002BA6
:104AF000F9D17B68002283F83C2000231846143744
:104B0000BD465DF8047B7047002301400020014052
:104B1000BC00002083DE1B4380B485B000AF78600A
:104B2000794BFB60FB685B6823F44032FB685A609A
:104B3000FB685A687B685B681A43FB685A607B684D
:104B40001B685A687B681B6822F480725A607B6815
:104B50001B6859687B681B691A027B681B680A43DB
:104B60005A607B681B685A687B681B6822F0407239
:104B70005A607B681B6859687B689A687B681B6809
:104B80000A435A607B681B689A687B681B6822F43A
:104B900000629A607B681B6899687B68DA687B684A
:104BA0001B680A439A607B689B6A584A934222D0EA
:104BB0007B681B689A687B681B6822F070629A6049
:104BC0007B681B6899687B689A6A7B681B680A43E4
:104BD0009A607B681B689A687B681B6822F0405269
:104BE0009A607B681B6899687B68DA6A7B681B68D7
:104BF0000A439A600FE07B681B689A687B681B68B1
:104C000022F070629A607B681B689A687B681B68F8
:104C100022F040529A607B681B689A687B681B6828
:104C200022F002029A607B681B6899687B681B7E91
:104C30005A007B681B680A439A607B6893F82030AF
:104C4000002B1BD07B681B685A687B681B6842F48A
:104C500000625A607B681B685A687B681B6822F494
:104C600060425A607B681B6859687B685B6A013BDD
:104C70005A037B681B680A435A6007E07B681B681D
:104C80005A687B681B6822F400625A607B681B6864
:104C9000DA6A7B681B6822F47002DA627B681B6840
:104CA000D96A7B68DB69013B1A057B681B680A438C
:104CB000DA627B681B689A687B681B6822F4007262
:104CC0009A607B681B6899687B6893F830305A0259
:104CD0007B681B680A439A607B681B689A687B68DC
:104CE0001B6822F480629A607B681B6899687B6805
:104CF0005B699A027B681B680A439A6000BF14379D
:104D0000BD465DF8047B7047002301400100000FA1
:104D100080B584B000AF78607B689B6BFB60FB68FC
:104D20001B6C03F05003002B3CD1FB681B6C43F45D
:104D30000072FB681A64FB681B689B6803F04053B1
:104D4000002B2BD1FB681B7E002B27D1FB681B6837
:104D5000DB6A03F47003002B06D0FB681B689B68BA
:104D600003F48063002B19D1FB681B685A68FB6849
:104D70001B6822F020025A60FB681B6C23F48072CF
:104D8000FB681A64FB681B6C03F48053002B05D18D
:104D9000FB681B6C43F00102FB681A64F868FFF7BC
:104DA0007BFD0EE0FB681B6C03F01003002B03D0AF
:104DB000F868FFF785FD04E0FB689B6BDB6C7868A7
:104DC000984700BF1037BD4680BD80B584B000AFA6
:104DD00078607B689B6BFB60F868FFF767FD00BF3E
:104DE0001037BD4680BD80B584B000AF78607B6869
:104DF0009B6BFB60FB6840221A64FB685B6C43F0B2
:104E00000402FB685A64F868FFF75AFD00BF1037C8
:104E1000BD4680BD80B485B000AF78607B6803F08C
:104E20000703FB600C4BDB68BB60BA684FF6FF03FF
:104E30001340BB60FB681A02BB68134343F0BF63B7
:104E400043F40033BB60044ABB68D36000BF14372F
:104E5000BD465DF8047B704700ED00E080B400AF14
:104E6000044BDB681B0A03F007031846BD465DF8D8
:104E7000047B704700ED00E080B483B000AF0346D0
:104E8000FB7197F90730002B0BDBFB7903F01F0256
:104E9000074997F907305B09012000FA02F241F84F
:104EA000232000BF0C37BD465DF8047B704700BF70
:104EB00000E100E080B483B000AF03463960FB71CD
:104EC00097F90730002B0ADB3B68DAB20C4997F9F7
:104ED00007301201D2B20B4483F800230AE03B688A
:104EE000DAB20849FB7903F00F03043B1201D2B296
:104EF0000B441A7600BF0C37BD465DF8047B704743
:104F000000E100E000ED00E080B489B000AFF8609F
:104F1000B9607A60FB6803F00703FB61FB69C3F1CA
:104F20000703042B28BF0423BB61FB690433062B52
:104F300002D9FB69033B00E000237B614FF0FF32A5
:104F4000BB6902FA03F3DA43BB681A407B699A40F3
:104F50004FF0FF317B6901FA03F3D9437B680B40C3
:104F6000134318462437BD465DF8047B70470000A4
:104F700080B582B000AF78607B68013BB3F1807F81
:104F800001D301230FE00A4A7B68013B53600F21E4
:104F90004FF0FF30FFF78EFF054B00229A60044B65
:104FA00007221A60002318460837BD4680BD00BF9F
:104FB00010E000E080B582B000AF78607868FFF75D
:104FC00029FF00BF0837BD4680BD80B586B000AF61
:104FD0000346B9607A60FB7300237B61FFF73EFFF5
:104FE00078617A68B9687869FFF78EFF024697F9A9
:104FF0000F3011461846FFF75DFF00BF1837BD465A
:1050000080BD80B582B000AF0346FB7197F90730D1
:105010001846FFF731FF00BF0837BD4680BD80B599
:1050200082B000AF78607868FFF7A2FF03461846A9
:105030000837BD4680BD000080B586B000AF7860FF
:1050400000237B61FFF7A4FA38617B68002B01D154
:10505000012399E07B68022283F835207B680022D7
:1050600083F834207B681B681A687B681B6822F011
:1050700001021A600FE0FFF78BFA02463B69D31A70
:10508000052B08D97B6820225A657B68032283F8A8
:105090003520032378E07B681B681B6803F001035D
:1050A000002BE8D17B681B681B687B617A69384BF1
:1050B00013407B617B685A687B689B681A437B68F6
:1050C000DB681A437B681B691A437B685B691A4378
:1050D0007B689B691A437B68DB691A437B681B6AA0
:1050E00013437A6913437B617B685B6A042B07D1A6
:1050F0007B68DA6A7B681B6B13437A6913437B61B5
:105100007B681B687A691A607B681B685B697B61D6
:105110007B6923F007037B617B685B6A7A691343D1
:105120007B617B685B6A042B17D17B689B6A7A6919
:1051300013437B617B68DB6A002B0ED0786800F03C
:1051400001FB0346002B08D07B6840225A657B6830
:10515000012283F83520012316E07B681B687A69F9
:105160005A61786800F0B8FA0346FB607B68DB6D33
:105170003F229A40FB689A607B6800225A657B68F0
:10518000012283F83520002318461837BD4680BD1C
:105190003F8010F080B586B000AFF860B9607A60EB
:1051A0003B600023FB75FB689B6D3B61FB6893F8DC
:1051B0003430012B01D1022340E0FB68012283F847
:1051C0003420FB6893F83530DBB2012B2FD1FB681C
:1051D000022283F83520FB6800225A653B687A6812
:1051E000B968F86800F04AFAFB68DB6D3F229A4024
:1051F0003B699A60FB681B681A68FB681B6842F091
:1052000016021A60FB681B6C002B07D0FB681B683A
:105210001A68FB681B6842F008021A60FB681B688A
:105220001A68FB681B6842F001021A6005E0FB681F
:10523000002283F834200223FB75FB7D18461837C3
:10524000BD4680BD80B584B000AF78607B689B6D43
:10525000FB60FFF79DF9B8607B6893F83530DBB2EF
:10526000022B08D07B6880225A657B68002283F875
:105270003420012352E07B681B681A687B681B6836
:1052800022F016021A607B681B685A697B681B68EB
:1052900022F080025A617B681B6C002B03D17B6873
:1052A0009B6C002B07D07B681B681A687B681B68A7
:1052B00022F008021A607B681B681A687B681B680A
:1052C00022F001021A6013E0FFF762F90246BB68A0
:1052D000D31A052B0CD97B6820225A657B680322E0
:1052E00083F835207B68002283F83420032315E0FF
:1052F0007B681B681B6803F00103002BE4D17B680B
:10530000DB6D3F229A40FB689A607B68012283F83C
:1053100035207B68002283F834200023184610379C
:10532000BD4680BD80B483B000AF78607B6893F8E1
:105330003530DBB2022B04D07B6880225A65012312
:105340000CE07B68052283F835207B681B681A68AF
:105350007B681B6822F001021A60002318460C3794
:10536000BD465DF8047B704780B586B000AF7860BD
:105370000023BB608E4B1B688E4AA2FB03239B0A53
:105380007B617B689B6D3B613B691B68FB607B6855
:10539000DB6D08229A40FB681340002B1AD07B6813
:1053A0001B681B6803F00403002B13D07B681B6889
:1053B0001A687B681B6822F004021A607B68DB6D48
:1053C00008229A403B699A607B685B6D43F001025A
:1053D0007B685A657B68DB6D01229A40FB6813404D
:1053E000002B12D07B681B685B6903F08003002BE5
:1053F0000BD07B68DB6D01229A403B699A607B6829
:105400005B6D43F002027B685A657B68DB6D0422AA
:105410009A40FB681340002B12D07B681B681B6806
:1054200003F00203002B0BD07B68DB6D04229A4053
:105430003B699A607B685B6D43F004027B685A6548
:105440007B68DB6D10229A40FB681340002B43D031
:105450007B681B681B6803F00803002B3CD07B684B
:10546000DB6D10229A403B699A607B681B681B6861
:1054700003F48023002B18D07B681B681B6803F49F
:105480000023002B08D17B681B6C002B24D07B6889
:105490001B6C786898471FE07B689B6C002B1BD0C7
:1054A0007B689B6C7868984716E07B681B681B6874
:1054B00003F48073002B07D17B681B681A687B6834
:1054C0001B6822F008021A607B681B6C002B03D05B
:1054D0007B681B6C786898477B68DB6D20229A405C
:1054E000FB681340002B00F08F807B681B681B68F3
:1054F00003F01003002B00F087807B68DB6D202217
:105500009A403B699A607B6893F83530DBB2052B93
:1055100036D17B681B681A687B681B6822F016020C
:105520001A607B681B685A697B681B6822F08002DE
:105530005A617B681B6C002B03D17B689B6C002B32
:1055400007D07B681B681A687B681B6822F008021A
:105550001A607B68DB6D3F229A403B699A607B68EA
:10556000012283F835207B68002283F834207B6891
:105570001B6D002B7ED07B681B6D7868984779E0A7
:105580007B681B681B6803F48023002B1DD07B689D
:105590001B681B6803F40023002B0DD17B685B6C38
:1055A000002B31D07B685B6C786898472CE000BF9B
:1055B000BC000020B5814E1B7B68DB6B002B23D029
:1055C0007B68DB6B786898471EE07B681B681B680C
:1055D00003F48073002B0FD17B681B681A687B680B
:1055E0001B6822F010021A607B68012283F83520C4
:1055F0007B68002283F834207B68DB6B002B03D0B0
:105600007B68DB6B786898477B685B6D002B32D0DA
:105610007B685B6D03F00103002B22D07B680522C1
:1056200083F835207B681B681A687B681B6822F04A
:1056300001021A60BB680133BB607A699A4207D3E2
:105640007B681B681B6803F00103002BF2D100E0AC
:1056500000BF7B68012283F835207B68002283F835
:1056600034207B68DB6C002B05D07B68DB6C7868B2
:10567000984700E000BF1837BD4680BD80B485B0B4
:1056800000AFF860B9607A603B60FB681B681A681D
:10569000FB681B6822F480221A60FB681B683A686A
:1056A0005A60FB689B68402B08D1FB681B687A68CE
:1056B0009A60FB681B68BA68DA6007E0FB681B68E1
:1056C000BA689A60FB681B687A68DA6000BF1437B2
:1056D000BD465DF8047B704780B485B000AF78604C
:1056E0007B681B68DBB2103B144AA2FB03231B0937
:1056F000FB60134AFB6813441B781A467B68DA6523
:10570000FB68032B09D97B681B6823F47F7323F0A4
:1057100003031A1D7B689A6507E07B681B6823F406
:105720007F7323F003037A6893657B689B6D18464B
:105730001437BD465DF8047B704700BFABAAAAAA28
:105740006019010880B485B000AF78600023FB7356
:105750007B689B6ABB607B689B69002B1FD1BB6821
:10576000032B56D801A252F823F000BF7D57000842
:105770008F5700087D570008135800087B68DB6AC4
:1057800003F08073002B46D00123FB7343E07B685A
:10579000DB6AB3F1C07F40D10123FB733DE07B683E
:1057A0009B69B3F5005F21D1BB68032B37D801A2F9
:1057B00052F823F0C5570008CB570008C55700081A
:1057C000DD5700080123FB7330E07B68DB6A03F0E0
:1057D0008073002B25D00123FB7322E07B68DB6AFA
:1057E000B3F1C07F1FD10123FB731CE0BB68022B08
:1057F00003D9BB68032B03D018E00123FB7315E02A
:105800007B68DB6A03F08073002B0ED00123FB73EF
:105810000BE000BF0AE000BF08E000BF06E000BFE9
:1058200004E000BF02E000BF00E000BFFB7B1846C1
:105830001437BD465DF8047B704700BF80B489B063
:1058400000AF7860396000237B6100233B61002357
:10585000BB610023FB616BE10122FB6902FA03F3E8
:105860007B613B681B687A6913403B613A697B69DD
:105870009A4240F05A813B685B6803F00303012BB6
:1058800005D03B685B6803F00303022B30D17B68D3
:105890009B68BB61FB695B00032202FA03F3DB43F5
:1058A000BA691340BB613B68DA68FB695B0002FAC6
:1058B00003F3BA691343BB617B68BA699A607B687A
:1058C0005B68BB610122FB6902FA03F3DB43BA693F
:1058D0001340BB613B685B681B0903F00102FB6975
:1058E00002FA03F3BA691343BB617B68BA695A6071
:1058F0003B685B6803F00303032B17D07B68DB680E
:10590000BB61FB695B00032202FA03F3DB43BA6964
:105910001340BB613B689A68FB695B0002FA03F3C2
:10592000BA691343BB617B68BA69DA603B685B683C
:1059300003F00303022B23D1FB69DA087B680832EA
:1059400053F82230BB61FB6903F007039B000F2271
:1059500002FA03F3DB43BA691340BB613B681A697F
:10596000FB6903F007039B0002FA03F3BA691343D0
:10597000BB61FB69DA087B680832B96943F8221019
:105980007B681B68BB61FB695B00032202FA03F3BF
:10599000DB43BA691340BB613B685B6803F00302F9
:1059A000FB695B0002FA03F3BA691343BB617B68CE
:1059B000BA691A603B685B6803F44033002B00F05F
:1059C000B4800023FB60604B5B6C5F4A43F4804310
:1059D00053645D4B5B6C03F48043FB60FB685B4A84
:1059E000FB699B08023352F82330BB61FB6903F06B
:1059F00003039B000F2202FA03F3DB43BA6913404F
:105A0000BB617B68524A93422BD07B68514A9342D8
:105A100025D07B68504A93421FD07B684F4A9342FF
:105A200019D07B684E4A934213D07B684D4A93420B
:105A30000DD07B684C4A934207D07B684B4A934217
:105A400001D107230EE008230CE006230AE005231A
:105A500008E0042306E0032304E0022302E001231C
:105A600000E00023FA6902F0030292009340BA6951
:105A70001343BB613549FB699B080233BA6941F89E
:105A800023203B4B1B68BB613B69DB43BA69134076
:105A9000BB613B685B6803F48033002B03D0BA69B9
:105AA0003B691343BB61324ABB691360304B5B688F
:105AB000BB613B69DB43BA691340BB613B685B6810
:105AC00003F40033002B03D0BA693B691343BB6175
:105AD000274ABB695360264B9B68BB613B69DB432C
