:020000040800F2
:1000000000000220F13A00085D3300086333000865
:10001000693300086F3300087533000800000000E2
:100020000000000000000000000000007B3300081A
:10003000893300080000000097330008A53300084A
:10004000413B0008413B0008413B0008413B0008A0
:10005000413B0008413B0008413B0008413B000890
:10006000413B0008413B0008413B0008413B000880
:10007000413B0008413B0008413B0008413B000870
:10008000413B0008413B0008413B0008413B000860
:10009000413B0008413B0008413B0008413B000850
:1000A000413B0008413B0008413B0008413B000840
:1000B000B1330008413B0008413B0008413B0008C8
:1000C000413B0008413B0008413B0008413B000820
:1000D000413B0008C5330008D9330008413B000804
:1000E000413B0008413B0008413B0008413B000800
:1000F000413B0008413B0008413B0008413B0008F0
:10010000413B0008413B0008413B0008413B0008DF
:10011000413B0008413B0008413B0008413B0008CF
:10012000ED330008413B0008413B0008413B00081B
:10013000413B0008413B0008413B0008413B0008AF
:10014000413B0008413B0008413B0008413B00089F
:10015000413B0008413B0008413B0008413B00088F
:10016000413B0008413B0008413B0008413B00087F
:10017000413B0008413B0008413B000800000000F3
:08018000413B0008413B00086F
:1001900010B5054C237833B9044B13B10448AFF3C1
:1001A00000800123237010BD20010020000000000A
:1001B0000C97000808B5034B1BB103490348AFF384
:1001C000008008BD00000000240100200C970008FA
:1001D00001F0FF01102A2BDB10F0070F08D010F8F8
:1001E000013B013A8B422DD010F0070F42B3F6D1FC
:1001F000F0B441EA012141EA014122F007047FF015
:1002000000070023F0E80256083C85EA010586EA6B
:10021000010685FA47F5A3FA87F586FA47F6A5FAA7
:1002200087F68EB9EED1F0BC01F0FF0102F00702B3
:1002300032B110F8013B013A83EA010313B1F8D15E
:100240000020704701387047002D06BF354603383F
:10025000073815F0010F07D1013015F4807F02BF78
:10026000013015F4C03F0130F0BC0138704700BFC9
:1002700053B94AB9002908BF00281CBF4FF0FF310D
:100280004FF0FF3000F070B9ADF1080C6DE904CE0D
:1002900000F006F8DDF804E0DDE9022304B0704761
:1002A0002DE9F047089E0D4604460F46002B4AD123
:1002B0008A42944665D9B2FA82F343B102FA03FC4A
:1002C000C3F120029F4020FA02F217439C404FEAFC
:1002D0001C4E1FFA8CF5B7FBFEF1220C0EFB1177BA
:1002E00042EA074201FB05F090420AD91CEB0202E8
:1002F00001F1FF3780F01C81904240F219810239F0
:100300006244121AA4B2B2FBFEF00EFB102244EAC1
:10031000024400FB05F5A5420AD91CEB040400F1D8
:10032000FF3280F00781A54240F204816444023824
:1003300040EA0140641B00211EB1DC400023C6E9F5
:100340000043BDE8F0878B4208D9002E00F0ED8015
:100350000021C6E900050846BDE8F087B3FA83F13D
:10036000002949D1AB4202D3824200F2F880841ABC
:1003700065EB030201201746002EE2D0C6E90047D4
:10038000DFE702B9FFDEB2FA82F3002B40F0908083
:100390008A1A4FEA1C471FFA8CFE0121B2FBF7F5BF
:1003A00007FB1520220C42EA00420EFB05F09042AA
:1003B00008D91CEB020205F1FF3802D2904200F28C
:1003C000CB804546121AA4B2B2FBF7F007FB10220D
:1003D00044EA02440EFB00FEA64508D91CEB0404C7
:1003E00000F1FF3202D2A64500F2BB801046A4EB1A
:1003F0000E0440EA05409FE7C1F120078B4022FA36
:1004000007FC4CEA030C05FA01F420FA07F3FD405F
:100410004FEA1C492343B5FBF9F81FFA8CFE09FB90
:1004200018551C0C44EA054408FB0EF5A54202FAD7
:1004300001F200FA01F00BD91CEB040408F1FF3AB9
:1004400080F08880A54240F28580A8F102086444CB
:10045000641B9DB2B4FBF9F309FB134445EA044461
:1004600003FB0EFEA64508D91CEB040403F1FF357F
:100470006CD2A6456AD9023B644443EA0843A3FB15
:100480000295A4EB0E04AC42C846AE4656D353D0F8
:1004900056B1B0EB080264EB0E0404FA07F7CA4049
:1004A000CC401743C6E9007418460021BDE8F08728
:1004B000C3F1200102FA03FC20FA01F225FA01F14E
:1004C0009D402A434FEA1C471FFA8CFEB1FBF7F010
:1004D00007FB1015110C41EA054100FB0EF58D429A
:1004E00004FA03F408D91CEB010100F1FF382FD204
:1004F0008D422DD902386144491B92B2B1FBF7F508
:1005000007FB151142EA014205FB0EF1914208D9A1
:100510001CEB020205F1FF3816D2914214D9023DBC
:100520006244521A45EA004138E73146304608E74E
:100530003946E6E61046FBE64845A9D2B9EB020883
:1005400065EB0C0E013BA3E74546EAE72B4694E733
:100550004046D1E7D0467BE7023D624432E7084699
:100560000AE76444023842E7704700BF80B584B0B0
:1005700000AF3B4600221A605A609A60DA603D4B39
:100580003D4A1A603B4B00225A603A4B00229A6067
:10059000384B01221A61374B00221A76354B002264
:1005A00083F82020334B0022DA62324B334A9A62BE
:1005B000304B0022DA602F4B0522DA612D4B0022EE
:1005C00083F830202B4B01225A612A4803F050FB5C
:1005D0000346002B01D001F08BFA08233B60012376
:1005E0007B600023BB603B461946224803F084FB36
:1005F0000346002B01D001F07BFA09233B60022364
:100600007B603B4619461B4803F076FB0346002BF4
:1006100001D001F06DFA0A233B6003237B603B4667
:100620001946144803F068FB0346002B01D001F083
:100630005FFA0B233B6004237B603B4619460D4861
:1006400003F05AFB0346002B01D001F051FA0C23B2
:100650003B6005237B603B461946064803F04CFB94
:100660000346002B01D001F043FA00BF1037BD460E
:1006700080BD00BF3C010020002001400100000FB0
:1006800080B58AB000AF786007F1140300221A60C9
:100690005A609A60DA601A617B681B683C4A934230
:1006A00071D100233B613B4B5B6C3A4A43F480734E
:1006B0005364384B5B6C03F480733B613B690023EC
:1006C000FB60344B1B6B334A43F004031363314B21
:1006D0001B6B03F00403FB60FB680023BB602D4B26
:1006E0001B6B2C4A43F0020313632A4B1B6B03F072
:1006F0000203BB60BB6807237B610323BB6100234C
:10070000FB6107F114031946234804F0A1F9032300
:100710007B610323BB610023FB6107F114031946CE
:100720001E4804F095F91E4B1E4A1A601C4B00220D
:100730005A601B4B00229A60194B0022DA60184B5A
:100740004FF480621A61164B4FF400625A61144BE9
:100750004FF400529A61124B4FF48072DA61104BE1
:1007600000221A620E4B00225A620D4803F0F4FD7B
:100770000346002B01D001F0BBF97B68084A9A635D
:10078000074A7B68936300BF2837BD4680BD00BF22
:1007900000200140003802400008024000040240EE
:1007A000840100201064024080B500AF01220821BE
:1007B000024804F0E9FA00BF80BD00BF000C02400F
:1007C00080B584B000AF002208212F4804F0DCFA85
:1007D000012208212C4804F0D7FA0A2302222B49CF
:1007E0002B4805F08CFA0023FB604FF400437B811B
:1007F00000237B603FE07B68002B06DB7B68032BDC
:1008000003DC7B680433FB6018E07B68032B07DDA7
:100810007B68072B04DC7B68C3F10703FB600DE0FA
:100820007B68072B06DD7B680B2B03DC7B680433BE
:10083000FB6003E07B68C3F11703FB60134B1A886E
:100840007B8913409BB2002B05D0124AFB68002124
:1008500022F8131009E00F4AFB6832F81330013315
:1008600099B20C4AFB6822F813107B895B087B81E4
:100870007B6801337B607B680F2BBCDD00BF00BF52
:100880001037BD4680BD00BF000C024004020020AE
:10089000A0050020E401002080B582B000AF002355
:1008A0007B600C4B1B6B0B4A43F480031363094BB7
:1008B0001B6B03F480037B607B68002200213820DF
:1008C00003F013FD382003F02CFD00BF0837BD46B0
:1008D00080BD00BF0038024080B58EB000AF07F188
:1008E0001C0300221A605A609A60DA601A615A6129
:1008F0009A613B4600221A605A609A60DA601A6177
:100900005A619A612F4B4FF020421A602D4B2E4AAC
:100910005A602C4B00229A602A4B0022DA60294B45
:1009200000221A61274B10225A61264B00229A613D
:10093000244B0022DA61234B00221A62214B002251
:100940005A62204B4FF480529A621E4B0022DA62A8
:100950001C4B4FF480421A631A4B00225A63194B06
:1009600000229A63174B00225A640F23FB610F2366
:100970003B623C237B620023BB621023FB6211239A
:100980003B6300237B6308233B600F237B600923C9
:10099000BB600023FB6010233B6111237B610023BC
:1009A000BB613A4607F11C031946064805F08AFD6B
:1009B0000346002B01D001F09BF800BF3837BD463D
:1009C00080BD00BF08020020040100A080B586B0F1
:1009D00000AF3B1D00221A605A609A60DA601A610B
:1009E0001C4B1B68002B31D11A4B01221A600023CB
:1009F0003B60194B9B6B184A43F001039363164B02
:100A00009B6B03F001033B603B684FF688737B6090
:100A10000223BB600023FB6003233B610C237B614B
:100A20003B1D19460D4804F013F84CF2B3737B607C
:100A30000223BB600023FB6003233B610C237B612B
:100A40003B1D1946064804F003F800E000BF1837C4
:100A5000BD4680BD58020020003802400010024010
:100A6000000C024080B582B000AF7860FFF7AEFFA7
:100A700000BF0837BD4680BD80B58EB000AF07F11E
:100A8000240300221A605A609A60DA601A61002317
:100A90003B628F4B1B6B8E4A43F0100313638C4BEE
:100AA0001B6B03F010033B623B6A0023FB61884B26
:100AB0001B6B874A43F004031363854B1B6B03F0E6
:100AC0000403FB61FB690023BB61814B1B6B804A04
:100AD00043F0200313637E4B1B6B03F02003BB61C9
:100AE000BB6900237B617A4B1B6B794A43F080031F
:100AF0001363774B1B6B03F080037B617B690023DF
:100B00003B61734B1B6B724A43F001031363704BE1
:100B10001B6B03F001033B613B690023FB606C4BE3
:100B20001B6B6B4A43F002031363694B1B6B03F0AF
:100B30000203FB60FB680023BB60654B1B6B644AD0
:100B400043F008031363624B1B6B03F00803BB60A5
:100B5000BB6800237B605E4B1B6B5D4A43F0400328
:100B600013635B4B1B6B03F040037B607B680022CD
:100B70007021584804F008F900224FF408515648F3
:100B800004F002F900224FF48061544804F0FCF8AC
:100B900000224FF4E071524804F0F6F800224FF4BE
:100BA0008071504804F0F0F8002208214E4804F00B
:100BB000EBF870237B620123BB620023FB620023FE
:100BC0003B6307F124031946424803F041FF4FF409
:100BD00008537B620123BB620023FB6200233B635B
:100BE00007F1240319463C4803F032FF4FF4007329
:100BF0007B620023BB620023FB6207F124031946DA
:100C0000364803F025FF4FF480637B620123BB620B
:100C10000023FB6200233B6307F1240319462F489E
:100C200003F016FFC0237B620023BB620023FB623C
:100C300007F1240319462B4803F00AFF30237B6297
:100C40000023BB620023FB6207F1240319462248FC
:100C500003F0FEFE4FF4E0737B620123BB620023CE
:100C6000FB6200233B6307F1240319461C4803F091
:100C7000EFFE4FF488537B620023BB620123FB62CB
:100C800007F124031946144803F0E2FE4FF4807381
:100C90007B620123BB620023FB6200233B6307F1FD
:100CA000240319460F4803F0D3FE08237B62012377
:100CB000BB620023FB6200233B6307F12403194658
:100CC000094803F0C5FE00BF3837BD4680BD00BFF0
:100CD00000380240001002400008024000140240A8
:100CE0000018024000000240000C024080B500AF36
:100CF000124B134A1A60114B124A5A600F4B0022D2
:100D00009A600E4B0022DA600C4B4FF480421A615D
:100D10000A4B00225A61094B00229A61074B0022BC
:100D2000DA61064B00221A62044804F047F80346D1
:100D3000002B01D000F0DCFE00BF80BD5C02002073
:100D400000540040A086010080B58AB000AF7860F2
:100D500007F1140300221A605A609A60DA601A617F
:100D60007B681B68194A93422BD100233B61184BC7
:100D70001B6B174A43F002031363154B1B6B03F005
:100D800002033B613B69C0237B611223BB610023EB
:100D9000FB6103233B6204237B6207F114031946C2
:100DA0000C4803F055FE0023FB60094B1B6C084AFE
:100DB00043F400131364064B1B6C03F40013FB6035
:100DC000FB6800BF2837BD4680BD00BF005400400F
:100DD000003802400004024080B483B000AF0346F4
:100DE000FB80044AFB88138000BF0C37BD465DF8CA
:100DF000047B7047FEFF0F6080B483B000AF0346F2
:100E0000FB80044AFB88538000BF0C37BD465DF869
:100E1000047B7047FEFF0F6080B483B000AF064BC9
:100E20005B889BB2FB80FB889BB218460C37BD46A3
:100E30005DF8047B704700BFFEFF0F6090B583B084
:100E400000AF0446084611461A462346FB80034677
:100E5000BB800B467B8013463B802A20FFF7BCFFFC
:100E6000FB881B0A9BB21846FFF7C6FFFB88DBB264
:100E70009BB21846FFF7C0FF7B881B0A9BB218463F
:100E8000FFF7BAFF7B88DBB29BB21846FFF7B4FFCF
:100E90002B20FFF7A1FFBB881B0A9BB21846FFF768
:100EA000ABFFBB88DBB29BB21846FFF7A5FF3B88C0
:100EB0001B0A9BB21846FFF79FFF3B88DBB29BB231
:100EC0001846FFF799FF2C20FFF786FF00BF0C376D
:100ED000BD4690BD80B584B000AF0346FB80154B86
:100EE0001B88013B9AB2134B5B88013B9BB20021EC
:100EF0000020FFF7A3FF0023FB8111E00023BB814B
:100F000006E0FB881846FFF777FFBB890133BB81FA
:100F1000084B5B88BA899A42F3D3FB890133FB8182
:100F2000044B1B88FA899A42E8D300BF00BF1037F0
:100F3000BD4680BDB002002090B585B000AF04462C
:100F4000084611461A462346FB800346BB800B46E3
:100F50007B8013463B807B88013B9AB23B88013BF8
:100F60009BB2B988F888FFF769FFBB88FB8110E066
:100F7000FB88BB8106E03B8C1846FFF73DFFBB8931
:100F80000133BB81BA897B889A42F4D3FB89013350
:100F9000FB81FA893B889A42EAD300BF00BF14372D
:100FA000BD4690BD80B582B000AF0346FB800B46C6
:100FB000BB8013467B80BB88FA88B988F888FFF726
:100FC0003DFF7B881846FFF717FF00BF0837BD4677
:100FD00080BD90B58DB000AF0446084611461A4654
:100FE0002346FB800346BB800B467B8013463B8039
:100FF0000023BB6200237B627A88FB88D31A3B62A2
:101000003A88BB88D31AFB61FB88FB60BB88BB6056
:101010003B6A002B02DD01237B610BE03B6A002B66
:1010200002D100237B6105E04FF0FF337B613B6A17
:101030005B423B62FB69002B02DD01233B610BE05D
:10104000FB69002B02D100233B6105E04FF0FF3329
:101050003B61FB695B42FB613A6AFB699A4202DDD4
:101060003B6ABB6101E0FB69BB610023FB852BE0B0
:10107000FB689BB2BA6891B2B7F840201846FFF7F8
:1010800091FFBA6A3B6A1344BB627A6AFB691344F4
:101090007B62BA6ABB699A4207DDBA6ABB69D31A36
:1010A000BB62FA687B691344FB607A6ABB699A4247
:1010B00007DD7A6ABB69D31A7B62BA683B6913445D
:1010C000BB60FB8D0133FB85FB8DBA699A42CFDA99
:1010D00000BF00BF3437BD4690BD90B585B002AFAC
:1010E0000446084611461A462346FB800346BB8049
:1010F0000B467B8013463B80BC887A88B988F88889
:101100003B8B00932346FFF764FF3C88FA88B9883D
:10111000F8883B8B00932346FFF75BFF3C887A8877
:101120003988F8883B8B00932346FFF752FF3C88B1
:101130007A88B98878883B8B00932346FFF749FF6C
:1011400000BF0C37BD4690BD90B587B000AF0446D8
:10115000084611461A462346FB800346BB800B46D1
:10116000FB7013463B8000237B75FB883B8297F81E
:101170002C305B08FB73FB7BDB08DBB21A46FB7B86
:1011800003F00703DBB2002B14BF01230023DBB203
:1011900013449AB297F82C309BB212FB03F3BB8135
:1011A000FB78203BFB70FB7B9AB2FB8813449BB21D
:1011B000013B9CB297F82C309AB2BB8813449BB287
:1011C000013B9BB2B988F8882246FFF737FE00231F
:1011D0007B827AE097F82C300C2B28D097F82C30B3
:1011E000102B08D1FA787B8A3C4912010A44134437
:1011F0001B78FB751BE097F82C30182B0BD1FA7875
:10120000798A374813465B0013441B0103440B449F
:101210001B78FB750BE097F82C30202B5AD1FA780D
:101220007B8A304992010A4413441B78FB750023E2
:10123000BB7544E097F83030002B20D1FA7DBB7DA0
:1012400042FA03F303F00103002B04D03B88184655
:10125000FFF7D2FD03E03B8D1846FFF7CDFD7B7D08
:1012600001337B757B7DFA7BB3FBF2F101FB02F26C
:101270009B1ADBB2002B1FD100237B7522E0FA7D85
:10128000BB7D42FA03F303F00103002B05D03A883B
:10129000B988FB881846FFF785FEFB880133FB8081
:1012A000FA883B8AD21AFB7B9A4205D13B8AFB80A3
:1012B000BB880133BB8005E0BB7D0133BB75BB7DC3
:1012C000072BB7D97B8A01337B827A8ABB899A4202
:1012D00080D300E000BF1C37BD4690BD6C9700086E
:1012E0005C9D00082CAF000880B485B000AF0346B9
:1012F0000A46FB711346BB710123FB6004E0FA79D7
:10130000FB6802FB03F3FB60BB795A1EBA71002B2A
:10131000F5D1FB6818461437BD465DF8047B70476D
:1013200090B589B004AF0446084611461A462346D4
:10133000FB800346BB800B467B8013467B700023FB
:10134000BB7397F828305B087B730023FB7359E06D
:101350007C887A78FB7BD31ADBB2013BDBB219467F
:101360000A20FFF7C1FF0346B4FBF3F12A4BA3FBAE
:101370000123DA0813469B0013445B00CA1A134684
:101380003B73BB7B002B21D1FA7B7B78013B9A42DC
:101390001CDA3B7B002B17D1FB7B9AB27B7B9BB289
:1013A00012FB03F39AB2FB88134498B23A8CB988C3
:1013B0000023029397F828300193BB8C00931346C7
:1013C0002022FFF7C1FE1AE00123BB73FB7B9AB218
:1013D0007B7B9BB212FB03F39AB2FB88134498B257
:1013E0003B7B3033DAB23C8CB9880023029397F808
:1013F00028300193BB8C00932346FFF7A5FEFB7BAF
:101400000133FB73FA7B7B789A42A1D300BF00BF04
:101410001437BD4690BD00BFCDCCCCCC80B483B0DA
:1014200000AF0346FB71FB791B09DBB203F003033A
:10143000DBB2002B07D00A4B4FF4A0721A80084B86
:10144000F0225A8006E0064BF0221A80044B4FF43B
:10145000A0725A8000BF0C37BD465DF8047B704710
:10146000B002002080B500AF00224FF40051AA481E
:1014700003F08AFC4FF4FA7002F0D6FB01224FF41D
:101480000051A54803F080FC4FF4FA7002F0CCFB49
:101490000020FFF7C3FFD320FFF79EFCFFF7BCFC43
:1014A00003461A469D4B9A80FFF7B6FC03461A4640
:1014B0009A4B9A80FFF7B0FC03461A46974B9A80E6
:1014C000964B9B881B029AB2944B9A80FFF7A4FC20
:1014D00003461A46914B9B8813439AB28F4B9A80CE
:1014E000CF20FFF779FC0020FFF786FCC120FFF733
:1014F00083FC3020FFF780FCED20FFF76DFC6420BB
:10150000FFF77AFC0320FFF777FC1220FFF774FC4B
:101510008120FFF771FCE820FFF75EFC8520FFF7D4
:101520006BFC1020FFF768FC7A20FFF765FCCB20EE
:10153000FFF752FC3920FFF75FFC2C20FFF75CFC23
:101540000020FFF759FC3420FFF756FC0220FFF77C
:1015500053FCF720FFF740FC2020FFF74DFCEA206A
:10156000FFF73AFC0020FFF747FC0020FFF744FCA0
:10157000C020FFF731FC1B20FFF73EFCC120FFF726
:101580002BFC0120FFF738FCC520FFF725FC30209D
:10159000FFF732FC3020FFF72FFCC720FFF71CFCC1
:1015A000B720FFF729FC3620FFF716FC0820FFF7CD
:1015B00023FC3A20FFF710FC5520FFF71DFCB1205B
:1015C000FFF70AFC0020FFF717FC1A20FFF714FCB6
:1015D000B620FFF701FC0A20FFF70EFCA220FFF760
:1015E0000BFCF220FFF7F8FB0020FFF705FC26209C
:1015F000FFF7F2FB0120FFF7FFFBE020FFF7ECFB1A
:101600000F20FFF7F9FB2A20FFF7F6FB2820FFF752
:10161000F3FB0820FFF7F0FB0E20FFF7EDFB08209F
:10162000FFF7EAFB5420FFF7E7FBA920FFF7E4FBF5
:101630004320FFF7E1FB0A20FFF7DEFB0F20FFF757
:10164000DBFB0020FFF7D8FB0020FFF7D5FB0020D5
:10165000FFF7D2FB0020FFF7CFFBE120FFF7BCFB39
:101660000020FFF7C9FB1520FFF7C6FB1720FFF787
:10167000C3FB0720FFF7C0FB1120FFF7BDFB0620CF
:10168000FFF7BAFB2B20FFF7B7FB5620FFF7B4FBA1
:101690003C20FFF7B1FB0520FFF7AEFB1020FFF762
:1016A000ABFB0F20FFF7A8FB3F20FFF7A5FB3F2078
:1016B000FFF7A2FB0F20FFF79FFB2B20FFF78CFB10
:1016C0000020FFF799FB0020FFF796FB0120FFF7B2
:1016D00093FB3F20FFF790FB2A20FFF77DFB0020C4
:1016E000FFF78AFB0020FFF787FB0020FFF784FB52
:1016F000EF20FFF781FB1120FFF76EFB782002F04F
:1017000093FA2920FFF768FB01224FF48071044807
:1017100003F03AFB00BF80BD00080240B002002089
:101720000000024090B58BB004AFBA601A46034681
:10173000FB810B46BB811346FB80FB89BB820023E8
:10174000FB7548E0FB7D002B45D1FA89264B1B88B1
:10175000194697F82C305B08DBB2CB1A9A423FDC73
:10176000BA89214B5B88194697F82C30CB1A9A42DC
:1017700036DCBB681B78802B02D90123FB752AE07D
:10178000BB681B780D2B0BD197F82C309AB2BB8914
:101790001344BB81BB8AFB81BB680133BB6017E08C
:1017A000BB681A78FC88B989F88997F830300293B9
:1017B00097F82C3001933B8D00932346FFF7C4FC30
:1017C00097F82C305B08DBB29AB2FB891344FB819B
:1017D000BB680133BB60BB681B78002BB2D100E053
:1017E00000BF1C37BD4690BDB002002080B500AFE1
:1017F00001224021024803F0C7FA00BF80BD00BFAC
:101800000018024080B500AF3F4B1B88DBB29AB294
:101810003D4B1A803D4B1B683D4AD35C1B021AB2FC
:10182000394B1B881BB213431BB29AB2364B1A803A
:10183000364B1B68032B47D801A252F823F000BF98
:10184000511800086F1800088D180008AB18000820
:101850002D4B1B8843F0B0039AB22B4B1A802A4BB6
:101860001B8823F040039AB2274B1A802DE0264BA9
:101870001B8843F0D0039AB2234B1A80224B1B885B
:1018800023F020039AB2204B1A801EE01E4B1B88C7
:1018900043F0E0039AB21C4B1A801B4B1B8823F0C9
:1018A00010039AB2184B1A800FE0174B1B8843F0B5
:1018B00070039AB2144B1A80134B1B8823F08003D9
:1018C0009AB2114B1A8000E000BF104B1B68013325
:1018D0005A4203F0030302F0030258BF53420B4A7B
:1018E0001360002240210B4803F04EFA012302222C
:1018F0000549094804F0C7F801224021054803F0D2
:1019000043FA00BF80BD00BF0E000020B8020020D7
:101910000000002000180240A005002080B485B01F
:1019200000AFF860B9601346FB71FB68002B0EDB5B
:10193000FB68092B0BDC094AFB6813441A78FB7916
:10194000D31AD9B2064ABB6813440A461A7000BFBC
:101950001437BD465DF8047B704700BF04000020CB
:101960000000002080B500AF02F0ECF800F02EF887
:10197000FFF782F801F06CFE01F04AFCFEF7ACFFC5
:10198000FFF7B4F901F0B0FEFEF786FFFEF7EEFDBB
:1019900001F00EFE01F0F6FF01F0CAFF00F080F842
:1019A0004FF6FF70FFF796FA00F0DCF800BF064B29
:1019B0001B88002BFBD0044B00221A80FEF700FF8F
:1019C00000F08EF8F2E700BF9A05002080B594B0D1
:1019D00000AF07F1200330220021184606F0F3FF84
:1019E00007F10C0300221A605A609A60DA601A61EB
:1019F0000023BB60284B1B6C274A43F080531364C1
:101A0000254B1B6C03F08053BB60BB6800237B60DD
:101A1000224B1B68214A43F4804313601F4B1B6811
:101A200003F480437B607B6802233B620123FB62FB
:101A300010233B630223BB630023FB6308233B6447
:101A4000A8237B640223BB640423FB6407F1200307
:101A5000184603F0F7FA0346002B01D000F048F8CF
:101A60000F23FB6002233B6100237B614FF4A053F3
:101A7000BB614FF4A053FB6107F10C03052118462D
:101A800003F058FD0346002B01D000F031F800BFF1
:101A90005037BD4680BD00BF003802400070004096
:101AA00080B500AF002220210C4803F06DF9002220
:101AB00040210A4803F068F900221021074803F08A
:101AC00063F901F051FBFFF791FEFEF76DFEFFF7A2
:101AD000C9FC322001F056FB00BF80BD001002405F
:101AE00080B500AF01F026FB01F050FA00BF80BDC9
:101AF00080B400AF72B600BFFEE780B582B000AF21
:101B000003460A46FB801346BB8006F019FE0246D8
:101B1000BB88591CFB88CB1A92FBF3F101FB03F342
:101B2000D31A9AB2FB8813449BB218460837BD46B5
:101B300080BD90B587B002AFF860B9607A603B6055
:101B4000FB6898B2BB6899B27B689AB23B689BB25B
:101B50004FF61F040094FFF7EFF900BF1437BD469E
:101B600090BD000090B585B002AF204BB3F90030B6
:101B700098B21F4BB3F9003099B21E4BB3F9003045
:101B80009AB21D4BB3F900309BB21F240094FFF7AB
:101B9000D3F90023FB7120E097F90730174A1B01A6
:101BA0001344186897F90730144A1B01134404338F
:101BB000196897F90730114A1B01134408331A6852
:101BC00097F907300D4C1B0123440C331B68FFF7BA
:101BD000B0FFFB790133DBB2FB7197F90730082BBB
:101BE000DADD00BF00BF0C37BD4690BD14000020F9
:101BF00016000020180000201A00002028000020F5
:101C000080B584B004AF002302931823019300230E
:101C100000934FF6FF730E4A1E213220FFF782FD1C
:101C20004FF47A7002F000F8002302931823019316
:101C30004FF6E07300931F23054A1E213220FFF761
:101C400071FD4FF47A7001F0EFFF00BFBD4680BD1B
:101C50002497000890B585B004AF002302931823A1
:101C600001934FF4784300934FF6FF732F4A782186
:101C70001920FFF757FD00230293182301934FF615
:101C8000FF7300931F232A4AC8210A20FFF74AFD49
:101C9000284B1B88092B0ED8264B1A881823029331
:101CA0004FF6FF7301931F2300930123C821D22015
:101CB000FFF736FB0DE01F4B1A88182302934FF6EF
:101CC000FF7301931F2300930223C821D220FFF743
:101CD00027FB194BB3F9003098B2184BB3F9003019
:101CE00099B2174BB3F900309AB2164BB3F90030E2
:101CF0009BB24FF6FF740094FFF71EF9124B188841
:101D0000124B1988104B1B8805339AB20F4B1B8856
:101D100005339BB24FF6FF740094FFF70DF9FFF700
:101D20006FFF00BF0437BD4690BD00BF3497000869
:101D30003C970008980500201400002016000020A1
:101D4000180000201A0000209405002096050020AD
:101D500090B583B002AF824B1B78002B37D1814BFB
:101D60009B6F9BB2023B98B27E4B5B6F99B27D4BEF
:101D70009B6F9AB27B4BDB6F9BB24FF6FF74009464
:101D8000FFF7DAF8774B1B6F023B764A1367754B08
:101D90009B6F023B734A9367724B1B6F98B2714BF8
:101DA0005B6F99B26F4B1B6F9BB202339AB26D4B54
:101DB000DB6F9BB24FF61F040094FFF7BDF8694B31
:101DC0001B6F0A2B3ADC664B01221A7036E0654B1A
:101DD0001B6F98B2634B5B6F99B2624B1B6F9BB2E8
:101DE00002339AB25F4BDB6F9BB24FF6FF740094E5
:101DF000FFF7A2F85B4B1B6F02335A4A1367594B2C
:101E00009B6F0233574A9367564B9B6F9BB2023BC3
:101E100098B2544B5B6F99B2524B9B6F9AB2514B35
:101E2000DB6F9BB24FF61F040094FFF785F84D4B14
:101E30009B6FE52B02DD4A4B00221A704A4B1B7840
:101E4000002B44D1474BD3F8803098B2454BD3F8A0
:101E50008C309BB2023B99B2424BD3F888309AB295
:101E6000404BD3F88C309BB24FF6FF740094FFF7D1
:101E700063F83C4BD3F88430023B3A4AC2F88430D2
:101E8000384BD3F88C30023B364AC2F88C30354B95
:101E9000D3F8803098B2334BD3F8843099B2314BB9
:101EA000D3F888309AB22F4BD3F884309BB20233E8
:101EB0009BB24FF61F040094FFF73EF8294BD3F86E
:101EC00084300A2B48DC284B01221A7044E0254B51
:101ED000D3F8803098B2234BD3F8843099B2214B99
:101EE000D3F888309AB21F4BD3F884309BB20233B8
:101EF0009BB24FF6FF740094FFF71EF8194BD3F80E
:101F000084300233174AC2F88430164BD3F88C3031
:101F10000233144AC2F88C30124BD3F8803098B296
:101F2000104BD3F88C309BB2023B99B20D4BD3F8D7
:101F300088309AB20B4BD3F88C309BB24FF61F040B
:101F40000094FEF7F9FF074BD3F88C30B3F59B7F75
:101F500002DB054B00221A7000BF0437BD4690BD5E
:101F600091050020280000209205002080B582B055
:101F700000AF0023FB71AAE0594BB3F900301946BA
:101F800097F90730574A1B0113441B68994246DBF7
:101F9000534BB3F90030194697F90730514A1B01EA
:101FA000134408331B68994239DC4F4BB3F90030B6
:101FB000194697F907304B4A1B01134404331B6839
:101FC00099420FDB484BB3F90030194697F90730B7
:101FD000444A1B0113440C331B68994202DCFFF78F
:101FE00039FE79E0414BB3F90030194697F90730D3
:101FF0003C4A1B01134404331B68994262DB3B4B90
:10200000B3F90030194697F90730364A1B011344DB
:102010000C331B68994255DCFFF71CFE5CE0344B27
:10202000B3F90030194697F907302E4A1B011344C3
:102030001B68994247DB2E4BB3F90030194697F9DC
:102040000730284A1B01134408331B6899423ADCC5
:10205000254BB3F90030194697F90730214A1B0187
:10206000134404331B6899420FDB1F4BB3F9003054
:10207000194697F907301B4A1B0113440C331B68A0
:10208000994202DCFFF7E6FD26E0184BB3F9003079
:10209000194697F90730134A1B01134404331B6890
:1020A000994210DB114BB3F90030194697F907300C
:1020B0000C4A1B0113440C331B68994203DCFFF7E5
:1020C000C9FD09E000BFFB790133DBB2FB7197F971
:1020D0000730082B7FF750AF0837BD4680BD00BFE3
:1020E0001400002028000020160000201A00002004
:1020F00018000020B0B584B002AF814B5B78002B94
:1021000040F08D807E4B5B687E4A12889342C0F21D
:102110005A817B4B1B78002B1CD1794B9B6898B262
:10212000774B5B699AB2784B1B88D31A99B2744B80
:10213000DB689AB2724B5B699BB24FF6FF740094F6
:10214000FEF7FAFE6E4B5B696F4A12889B1A6C4A67
:10215000536138E16A4B1B78012B1DD1684B9B689A
:1021600098B2674B1B6999B2654BDB689CB2644BB4
:102170001B699AB2644B1B8813449BB24FF6FF72E3
:1021800000922246FEF7D8FE5D4B1B695E4A12881C
:1021900013445B4A136116E1594B1B78022B1CD187
:1021A000574BDB689AB2584B1B88D31A98B2544BE2
:1021B0001B6999B2524BDB689AB2514B5B699BB277
:1021C0004FF6FF740094FEF7B7FE4D4BDB684E4AA6
:1021D00012889B1A4A4AD360F5E0494B1B78032BBF
:1021E00040F0F180464B9B6898B2454B1B6999B211
:1021F000434B9B689AB2444B1B8813449AB2404BA2
:102200005B699BB24FF6FF740094FEF795FE3C4B62
:102210009B683D4A12881344394A9360D3E0384B97
:102220005B78012B40F0CF80354B5B68364A1288D3
:102230009B1A334A5360324B1B78002B1CD1304B16
:102240009B6898B22E4B5B699AB22F4B1B88D31AAE
:1022500099B22B4BDB689AB2294B5B699BB24FF664
:10226000FF740094FEF768FE254B5B69264A1288CE
:102270009B1A234A536169E0214B1B78012B1DD126
:102280001F4B9B6898B21E4B1B6999B21C4BDB68B5
:102290009CB21B4B1B699AB21B4B1B8813449BB20D
:1022A0004FF6FF7200922246FEF746FE144B1B6962
:1022B000154A12881344124A136147E0104B1B78E9
:1022C000022B23D10E4BDB689AB20F4B1B88D31A1B
:1022D00098B20B4B1B6999B2094BDB689AB2084B59
:1022E0005B699BB24FF6FF740094FEF725FE044B2A
:1022F000DB68054A12889B1A014AD36026E000BFBA
:10230000C00200202000002022000020304B1B785B
:10231000032B1BD12E4B9B6898B22D4B1B6999B296
:102320002B4B9B689AB22B4B1B8813449AB2284BB9
:102330005B699BB24FF6FF740094FEF7FDFD244BE2
:102340009B68244A12881344214A9360224B1B78CD
:10235000002B38D11E4B5B68002B03D01C4B5B68F5
:10236000002B30DA1C4B01221A70FFF7C3FE1A4B08
:1023700000221A700023FB7119E0FB795A1CF979CD
:1023800013480B465B000B44DB001844104913460E
:102390005B001344DB000B4404461D460FCD0FC405
:1023A00095E8030084E80300FB790133FB71FA79B7
:1023B0000A4B1B78013B9A42DFDB084B1B78013B41
:1023C000DAB2064B1A7000BF0837BD46B0BD00BF79
:1023D000C00200202200002090050020BD02002045
:1023E00090B583B002AF7F4B1B78032B38D17E4B67
:1023F0001B785A1E7D4913465B001344DB000B44D7
:1024000004331B687A4A1288934219DC764B1B7896
:102410005A1E764913465B001344DB000B44043319
:102420001B68744A128811466F4A1278013A19449F
:102430006E4813465B001344DB0003440433196009
:102440006D4BB3F90010684B1B785A1E084667495C
:1024500013465B001344DB000B440C3318608DE023
:10246000614B1B78002B03D1604B00225A700BE0AC
:102470005D4B1B785A1E5D4913465B001344DB001D
:102480000B44013301221A70574B1B781946574AE7
:102490000B465B000B44DB001344013300221A702F
:1024A000534B1A88554B1B889A420ED1504B1A88B1
:1024B0004D4B1B78194610464C4A0B465B000B44AB
:1024C000DB001344043318600BE0474B1B781946BC
:1024D000464A0B465B000B44DB00134404330022E6
:1024E0001A60414B1B781946404A0B465B000B446F
:1024F000DB00134403221A70414BB3F900203A4B1E
:102500001B7819461046394A0B465B000B44DB002A
:10251000134408331860384BB3F90020324B1B7852
:1025200019461046314A0B465B000B44DB0013444E
:102530000C331860334BB3F900202B4B1B78194632
:1025400010462A4A0B465B000B44DB001344103351
:1025500018602D4BB3F90020234B1B781946104609
:10256000224A0B465B000B44DB0013441433186013
:102570001D4B1B780133DAB21B4B1A70194B032227
:102580001A701F4BB3F900309AB21A4B1B881344D0
:102590009BB21AB21A4B1A80174BB3F900309AB299
:1025A000144B1B8813449BB21AB2134B1A80144B62
:1025B000B3F9003098B2134BB3F9003099B20E4B17
:1025C000B3F900309AB2104BB3F900309BB21F241C
:1025D0000094FEF7B1FCFFF78DFD00BF0437BD4648
:1025E00090BD00BF1D000020BD020020C0020020E1
:1025F0002000002022000020180000201E000020E3
:1026000014000020160000201A00002090B583B0AE
:1026100002AF7F4B1B78022B38D17E4B1B785A1EA2
:102620007D4913465B001344DB000B4404331B68F5
:102630007A4A1288934219DC764B1B785A1E7649E7
:1026400013465B001344DB000B4404331B68744ADD
:10265000128811466F4A1278013A19446E4813469F
:102660005B001344DB000344043319606D4BB3F982
:102670000010684B1B785A1E0846674913465B00DA
:102680001344DB000B44083318608DE0614B1B786A
:10269000002B03D1604B00225A700BE05D4B1B787E
:1026A0005A1E5D4913465B001344DB000B440133A3
:1026B00001221A70574B1B781946574A0B465B008C
:1026C0000B44DB001344013300221A70534B1A8869
:1026D000554B1B889A420ED1504B1A884D4B1B7894
:1026E000194610464C4A0B465B000B44DB00134472
:1026F000043318600BE0474B1B781946464A0B46DB
:102700005B000B44DB001344043300221A60414B8E
:102710001B781946404A0B465B000B44DB00134410
:1027200002221A703F4BB3F900203A4B1B7819462E
:102730001046394A0B465B000B44DB001344083358
:1027400018603A4BB3F90020324B1B7819461046FB
:10275000314A0B465B000B44DB0013440C3318601A
:10276000334BB3F900202B4B1B78194610462A4AED
:102770000B465B000B44DB001344103318602D4BF9
:10278000B3F90020234B1B7819461046224A0B460A
:102790005B000B44DB001344143318601D4B1B78A3
:1027A0000133DAB21B4B1A70194B02221A701D4BFF
:1027B000B3F900309AB21A4B1B88D31A9BB21AB2E3
:1027C000184B1A80194BB3F900309AB2144B1B887E
:1027D000D31A9BB21AB2154B1A80124BB3F90030C0
:1027E00098B2134BB3F9003099B2104BB3F90030E3
:1027F0009AB2104BB3F900309BB21F240094FEF73D
:102800009BFBFFF777FC00BF0437BD4690BD00BFC0
:102810001D000020BD020020C0020020200000207A
:1028200022000020140000201E00002018000020BC
:10283000160000201A00002090B583B002AF854B2F
:102840001B78002B44D1844B1B785A1E83491346B6
:102850005B001344DB000B4404331B68804A12887E
:10286000934219DC7C4B1B785A1E7C4913465B0053
:102870001344DB000B4404331B687A4A1288114668
:10288000754A1278013A1944744813465B001344A0
:10289000DB000344043319606F4B1B785A1E6F49E9
:1028A00013465B001344DB000B4410331B686E4A75
:1028B000B2F900201146684A1278013A591A67485D
:1028C00013465B001344DB000344103319608DE0B2
:1028D000614B1B78002B03D1604B00225A700BE038
:1028E0005D4B1B785A1E5D4913465B001344DB00A9
:1028F0000B44013301221A70574B1B781946574A73
:102900000B465B000B44DB001344013300221A70BA
:10291000534B1A88554B1B889A420ED1504B1A883C
:102920004D4B1B78194610464C4A0B465B000B4436
:10293000DB001344043318600BE0474B1B78194647
:10294000464A0B465B000B44DB0013440433002271
:102950001A60414B1B781946404A0B465B000B44FA
:10296000DB00134400221A70414BB3F900203A4BAC
:102970001B7819461046394A0B465B000B44DB00B6
:102980001344083318603B4BB3F90020324B1B78DB
:1029900019461046314A0B465B000B44DB001344DA
:1029A0000C331860304BB3F900202B4B1B781946C1
:1029B00010462A4A0B465B000B44DB0013441033DD
:1029C00018602D4BB3F90020234B1B781946104695
:1029D000224A0B465B000B44DB001344143318609F
:1029E0001D4B1B780133DAB21B4B1A70194B0022B6
:1029F0001A701D4BB3F900309AB21A4B1B88D31AC8
:102A00009BB21AB2184B1A801B4BB3F900309AB222
:102A1000144B1B88D31A9BB21AB2174B1A80144B53
:102A2000B3F9003098B2104BB3F9003099B2114BA2
:102A3000B3F900309AB2104BB3F900309BB21F24A7
:102A40000094FEF779FAFFF755FB00BF0437BD4647
:102A500090BD00BF1D000020BD020020C00200206C
:102A60002000002022000020160000201E00002070
:102A700014000020180000201A00002090B583B038
:102A800002AF7F4B1B78012B38D17E4B1B785A1E2F
:102A90007D4913465B001344DB000B4404331B6881
:102AA0007A4A1288934219DC764B1B785A1E764973
:102AB00013465B001344DB000B4404331B68744A69
:102AC000128811466F4A1278013A19446E4813462B
:102AD0005B001344DB000344043319606D4BB3F90E
:102AE0000010684B1B785A1E0846674913465B0066
:102AF0001344DB000B44143318608DE0614B1B78EA
:102B0000002B03D1604B00225A700BE05D4B1B7809
:102B10005A1E5D4913465B001344DB000B4401332E
:102B200001221A70574B1B781946574A0B465B0017
:102B30000B44DB001344013300221A70534B1A88F4
:102B4000554B1B889A420ED1504B1A884D4B1B781F
:102B5000194610464C4A0B465B000B44DB001344FD
:102B6000043318600BE0474B1B781946464A0B4666
:102B70005B000B44DB001344043300221A60414B1A
:102B80001B781946404A0B465B000B44DB0013449C
:102B900001221A70414BB3F900203A4B1B781946B9
:102BA0001046394A0B465B000B44DB0013440833E4
:102BB00018603B4BB3F90020324B1B781946104686
:102BC000314A0B465B000B44DB0013440C331860A6
:102BD000344BB3F900202B4B1B78194610462A4A78
:102BE0000B465B000B44DB00134410331860294B89
:102BF000B3F90020234B1B7819461046224A0B4696
:102C00005B000B44DB001344143318601D4B1B782E
:102C10000133DAB21B4B1A70194B01221A70214B87
:102C2000B3F900309AB21A4B1B8813449BB21AB204
:102C30001C4B1A80174BB3F900309AB2144B1B8807
:102C400013449BB21AB2134B1A80144BB3F90030E1
:102C500098B2144BB3F9003099B2114BB3F900306C
:102C60009AB20C4BB3F900309BB21F240094FEF7CC
:102C700063F9FFF73FFA00BF0437BD4690BD00BFC0
:102C80001D000020BD020020C00200202000002006
:102C9000220000201A0000201E0000201400002046
:102CA000180000201600002090B583B002AF124B30
:102CB00001221A80114B1B8801339AB20F4B1A80E4
:102CC0000F4B1B880A339AB20D4B1A800D4B188894
:102CD0000D4B19880B4B1B8805339AB20A4B1B8886
:102CE00005339BB24FF6FF740094FEF725F900BF41
:102CF0000437BD4690BD00BF240000209805002089
:102D000020000020940500209605002090B583B097
:102D100002AF954B1B88012B30D1944BB3F9003097
:102D20009BB2053B9BB219460020FEF7E6FE034628
:102D30001A468F4B1A808F4BB3F900309BB2053B7C
:102D40009BB219460020FEF7D8FE03461A468A4B6E
:102D50001A80874B1888884B1988854B1B88053348
:102D60009AB2854B1B8805339BB24FF4784400948C
:102D7000FEF7E2F87C4B00221A80F1E07F4BB3F9BA
:102D800000301A467A4B1B889A4233D17C4BB3F9F8
:102D900000301A46784B1B889A4208DB784BB3F90F
:102DA00000301A46744B1B8805339A4220DD754B60
:102DB000B3F900301A46704B1B889A4208DB714BFE
:102DC000B3F900301A466C4B1B8805339A420FDD6D
:102DD0006B4BB3F900301A46674B1B889A4209DCEB
:102DE000654B1B880433674AB2F90020934201DA2D
:102DF000FFF75AFF644BB3F900301A465C4B1B884F
:102E000005339A4233D15E4BB3F900301A465A4B20
:102E10001B889A4208DB5A4BB3F900301A46564BCE
:102E20001B8805339A4220DD564BB3F900301A4611
:102E3000514B1B889A4208DB524BB3F900301A46BB
:102E40004D4B1B8805339A420FDD4D4BB3F90030D3
:102E50001A46494B1B889A4209DC474B1B880433AE
:102E6000484AB2F90020934201DAFFF71DFF454BB3
:102E7000B3F900301A46404B1B889A4233D1424B7B
:102E8000B3F900301A463A4B1B889A4208DB3E4B96
:102E9000B3F900301A46364B1B8805339A4220DDC1
:102EA000364BB3F900301A46314B1B889A4208DB87
:102EB000324BB3F900301A462D4B1B8805339A422A
:102EC0000FDD314BB3F900301A46294B1B889A426B
:102ED00009DC274B1B880433284AB2F900209342AF
:102EE00001DAFFF7E1FE264BB3F900301A46224B18
:102EF0001B8805339A4233D1234BB3F900301A466D
:102F00001B4B1B889A4208DB1F4BB3F900301A4653
:102F1000174B1B8805339A4220DD184BB3F900305C
:102F20001A46134B1B889A4208DB144BB3F9003046
:102F30001A460F4B1B8805339A420FDD124BB3F92B
:102F400000301A460A4B1B889A4209DC084B1B8842
:102F500004330A4AB2F90020934201DAFFF7A4FED3
:102F600000BF0437BD4690BD2400002010000020A3
:102F70009405002012000020960500201800002073
:102F8000160000201A0000201400002080B500AFB9
:102F90005D4BB3F90030052B2EDD5B4BB3F9002000
:102FA0005A4BB3F900309A4226DA594BB3F9003044
:102FB000052B21DD564BB3F90020544BB3F90030FB
:102FC0009A4219DA534BB3F90030002B14DD514B00
:102FD000B3F90020504BB3F900309A420CDA4F4B52
:102FE000B3F90030002B07DD4C4BB3F900204A4BFE
:102FF000B3F900309A4202DBFEF72CFE82E0002299
:1030000000210020FEF78AFC002201210020FEF7AB
:1030100085FC434B1B88434AA2FB0323DB089BB27E
:10302000002202211846FEF779FC3D4B1A883D4BE1
:10303000A3FB0213D9080B469B000B445B00D31A79
:103040009BB2002203211846FEF768FCFFF75EFEE4
:10305000FEF77EFEFEF78AFF334B9B89012B0BD1D7
:10306000324B1B78012B36D0304B1A78304B1A700C
:103070002E4B00221A702EE02B4B9B8B012B0BD179
:103080002A4B1B78002B26D0284B1A78284B1A7015
:10309000264B01221A701EE0234BDB8A012B0BD139
:1030A000224B1B78022B16D0204B1A78204B1A701B
:1030B0001E4B03221A700EE01B4B5B8A012B0AD1B8
:1030C0001A4B1B78032B06D0184B1A78184B1A7022
:1030D000164B02221A70154B1B78032B0CD0032BB6
:1030E0000DDC002B02D0012B03D008E0FFF7A4FB7E
:1030F00008E0FFF7C3FC05E0FFF772F902E0FFF715
:1031000085FA00BF80BD00BF140000201000002021
:103110001800002016000020120000201A000020D5
:1031200098050020CDCCCCCCE40100201C00002070
:103130001D00002080B582B002AF094BB3F900300A
:103140009AB2084BB3F900309BB24FF4784100912A
:1031500005210520FDF7C1FF00BFBD4680BD00BFB2
:10316000100000201200002080B500AF034803F0DB
:10317000A5FA034803F03AFA00BF80BD44060020D8
:10318000FC05002080B483B000AF0346FB80084AF2
:10319000FB881380064B1A88064B1A80064B0022C8
:1031A0001A8000BF0C37BD465DF8047B704700BF36
:1031B0009E0500209C0500209A05002080B582B065
:1031C00000AF78607B681B68B3F1804F16D10D4B60
:1031D0001B88002B10D00B4B1B88013B9AB2094B6C
:1031E0001A80084B1B88002B06D1074B01221A803E
:1031F000064B1A88034B1A80FEF704FB00BF083702
:10320000BD4680BD9C0500209A0500209E0500203B
:1032100080B500AF174B184A1A60164B4FF48272F4
:103220005A60144B00229A60124B0022DA60114B54
:1032300000221A610F4B00225A610E4B4FF40072AC
:103240009A610C4B0022DA610A4B00221A62094B88
:1032500000225A62074B00229A62064B0A22DA6267
:10326000044802F087FB0346002B01D0FEF740FC28
:1032700000BF80BDA00500200030014080B58AB0AD
:1032800000AF786007F1140300221A605A609A6058
:10329000DA601A617B681B68194A93422BD10023BC
:1032A0003B61184B5B6C174A43F480535364154BD6
:1032B0005B6C03F480533B613B690023FB60114B63
:1032C0001B6B104A43F0020313630E4B1B6B03F09E
:1032D0000203FB60FB6838237B610223BB61002390
:1032E000FB6103233B6205237B6207F1140319464C
:1032F000054801F0ADFB00BF2837BD4680BD00BFCB
:1033000000300140003802400004024080B483B025
:1033100000AF00237B60104B5B6C0F4A43F480438B
:1033200053640D4B5B6C03F480437B607B6800232C
:103330003B60094B1B6C084A43F080531364064BF7
:103340001B6C03F080533B603B6800BF0C37BD46ED
:103350005DF8047B704700BF0038024080B400AFC6
:10336000FEE780B400AFFEE780B400AFFEE780B4B4
:1033700000AFFEE780B400AFFEE780B400AF00BF4F
:10338000BD465DF8047B704780B400AF00BFBD460A
:103390005DF8047B704780B400AF00BFBD465DF8A8
:1033A000047B704780B500AF00F01EFC00BF80BDFD
:1033B00080B500AF024803F04AFA00BF80BD00BFED
:1033C0004406002080B500AF024804F085F900BF34
:1033D00080BD00BFD806002080B500AF024804F0D1
:1033E0007BF900BF80BD00BF1C07002080B500AF87
:1033F000024801F0F1F800BF80BD00BF8401002049
:1034000080B400AF01231846BD465DF8047B7047C9
:1034100080B582B000AF7860396005F023FB0346C9
:1034200016221A604FF0FF3318460837BD4680BD9C
:1034300080B582B000AF78604FF0FF317868FFF759
:10344000E7FFFEE780B586B000AFF860B9607A604C
:1034500000237B610AE0AFF300800146BB685A1C81
:10346000BA60CAB21A707B6901337B617A697B6882
:103470009A42F0DB7B6818461837BD4680BD80B5A0
:1034800086B000AFF860B9607A6000237B6109E024
:10349000BB685A1CBA601B781846AFF300807B6982
:1034A00001337B617A697B689A42F1DB7B6818465D
:1034B0001837BD4680BD80B483B000AF78604FF050
:1034C000FF3318460C37BD465DF8047B704780B467
:1034D00083B000AF786039603B684FF400525A60A7
:1034E000002318460C37BD465DF8047B704780B456
:1034F00083B000AF7860012318460C37BD465DF8F5
:10350000047B704780B485B000AFF860B9607A6022
:10351000002318461437BD465DF8047B7047000051
:1035200080B586B000AF7860144A154BD31A7B6122
:103530007B693B61134B1B68002B02D1114B124A74
:103540001A60104B1A687B6813443A699A4207D292
:1035500005F088FA03460C221A604FF0FF3309E0A9
:10356000084B1B68FB60074B1A687B681344054ACD
:103570001360FB6818461837BD4680BD0000022066
:1035800000040000F8050020B008002080B400AF5F
:10359000064BD3F88830054A43F47003C2F88830EC
:1035A00000BFBD465DF8047B704700BF00ED00E042
:1035B00080B586B000AF07F1080300221A605A6098
:1035C0009A60DA603B4600221A605A601E4B1F4A1E
:1035D0001A601D4B53225A601B4B00229A601A4BF3
:1035E0004FF6FF72DA60184B00221A61164B002268
:1035F0005A61154B00229A61134802F0A7FF034657
:10360000002B01D0FEF774FA4FF48053BB6007F132
:10361000080319460C4803F0E5FA0346002B01D0D5
:10362000FEF766FA00233B6000237B603B461946A9
:10363000054803F0B1FE0346002B01D0FEF758FA0F
:1036400000BF1837BD4680BDFC05002000000140CA
:1036500080B586B000AF07F1080300221A605A60F7
:103660009A60DA603B4600221A605A601D4B4FF0A8
:1036700080421A601B4B40F247325A60194B0022BD
:103680009A60184B6322DA60164B00221A61154BC0
:1036900000229A61134802F059FF0346002B01D023
:1036A000FEF726FA4FF48053BB6007F10803194672
:1036B0000C4803F097FA0346002B01D0FEF718FAE6
:1036C00000233B6000237B603B461946054803F01E
:1036D00063FE0346002B01D0FEF70AFA00BF18373D
:1036E000BD4680BD4406002080B588B000AF3B1DBC
:1036F00000221A605A609A60DA601A615A619A610F
:103700001E4B1F4A1A601D4B40F247325A601B4B3A
:1037100000229A60194B6322DA60184B00221A616A
:10372000164B00229A61154802F010FF0346002B49
:1037300001D0FEF7DDF9114803F030F80346002B05
:1037400001D0FEF7D5F960237B600023BB60002326
:10375000FB6000237B613B1D00221946074803F0F4
:103760007FF90346002B01D0FEF7C2F9034800F0B1
:103770005BF800BF2037BD4680BD00BF8C0600202F
:10378000001C004080B586B000AF78607B681B6885
:10379000224A93420ED100237B61214B5B6C204A6D
:1037A00043F0010353641E4B5B6C03F001037B6128
:1037B0007B692EE07B681B68B3F1804F16D1002334
:1037C0003B61174B1B6C164A43F001031364144B07
:1037D0001B6C03F001033B613B69002200211C20AC
:1037E00000F083FD1C2000F09CFD12E07B681B684C
:1037F0000C4A93420DD10023FB60094B1B6C084A15
:1038000043F080031364064B1B6C03F08003FB60E2
:10381000FB6800BF1837BD4680BD00BF00000140F7
:1038200000380240001C004080B588B000AF7860CE
:1038300007F10C0300221A605A609A60DA601A617C
:103840007B681B68124A93421ED10023BB60114B58
:103850001B6B104A43F0200313630E4B1B6B03F0EA
:103860002003BB60BB684FF48073FB6002233B61A5
:1038700000237B610023BB610923FB6107F10C037B
:103880001946054801F0E4F800BF2037BD4680BD69
:10389000001C0040003802400014024080B582B095
:1038A00000AF78607B681B68194A93420AD10A23EB
:1038B00001221849184803F04CFE01221549164808
:1038C00003F0D9FE7B681B68144A93421BD1144B4A
:1038D0001B784F2B03D1134B01221A700EE0104BB3
:1038E0001B78612B03D1104B00221A7006E00C4BA1
:1038F0001B78412B02D10C4B01221A70012208497E
:103900000A4803F0B8FE00BF0837BD4680BD00BFBF
:1039100000100140D4060020D806002000440040DA
:10392000D5060020D6060020BC0200201C0700207F
:1039300080B500AF114B124A1A60104B4FF4E132C0
:103940005A600E4B00229A600C4B0022DA600B4B3F
:1039500000221A61094B0C225A61084B00229A611D
:10396000064B0022DA61054803F0A6FD0346002B52
:1039700001D0FEF7BDF800BF80BD00BFD806002013
:103980000010014080B500AF114B124A1A60104B75
:103990004FF4E1325A600E4B00229A600C4B002229
:1039A000DA600B4B00221A61094B0C225A61084B5A
:1039B00000229A61064B0022DA61054803F07CFD83
:1039C0000346002B01D0FEF793F800BF80BD00BF77
:1039D0001C0700200044004080B58CB000AF786028
:1039E00007F11C0300221A605A609A60DA601A61BB
:1039F0007B681B683A4A934235D10023BB61394B3F
:103A00005B6C384A43F010035364364B5B6C03F035
:103A10001003BB61BB6900237B61324B1B6B314AD6
:103A200043F0010313632F4B1B6B03F001037B6116
:103A30007B694FF4C063FB6102233B6200237B621E
:103A40000323BB620723FB6207F11C0319462648C8
:103A500000F0FEFF00220021252000F046FC25207A
:103A600000F05FFC38E07B681B68204A934233D14A
:103A700000233B611B4B1B6C1A4A43F40033136455
:103A8000184B1B6C03F400333B613B690023FB6064
:103A9000144B1B6B134A43F001031363114B1B6B55
:103AA00003F00103FB60FB680C23FB6102233B6214
:103AB00000237B620323BB620723FB6207F11C0325
:103AC0001946094800F0C4FF00220021262000F01A
:103AD0000CFC262000F025FC00BF3037BD4680BD21
:103AE0000010014000380240000002400044004045
:103AF000DFF834D00D480E490E4A002302E0D458B6
:103B0000C4500433C4188C42F9D30B4A0B4C002325
:103B100001E013600432A242FBD3FFF737FD04F04B
:103B2000A7FFFDF71FFF70470000022000000020E4
:103B300020010020FCC7000820010020B008002060
:103B4000FEE7000080B500AF0E4B1B680D4A43F442
:103B5000007313600B4B1B680A4A43F480631360C5
:103B6000084B1B68074A43F480731360032000F07E
:103B7000B1FB0F2000F008F8FFF7C8FB0023184640
:103B800080BD00BF003C024080B582B000AF7860CD
:103B9000124B1A68124B1B7819464FF47A73B3FB19
:103BA000F1F3B2FBF3F3184600F0C9FB0346002B18
:103BB00001D001230EE07B680F2B0AD80022796820
:103BC0004FF0FF3000F091FB064A7B681360002342
:103BD00000E0012318460837BD4680BDB80000202C
:103BE000C0000020BC00002080B400AF064B1B7852
:103BF0001A46064B1B681344044A136000BFBD46B7
:103C00005DF8047B704700BFC00000206007002003
:103C100080B400AF034B1B681846BD465DF8047BBB
:103C2000704700BF6007002080B584B000AF7860A7
:103C3000FFF7EEFFB8607B68FB60FB68B3F1FF3F06
:103C400005D00A4B1B781A46FB681344FB6000BF83
:103C5000FFF7DEFF0246BB68D31AFA689A42F7D82C
:103C600000BF00BF1037BD4680BD00BFC0000020B0
:103C700080B584B000AF78600023FB737B68002BB5
:103C800001D1012333E07B681B6C002B09D17868DC
:103C9000FCF7F6FC7B6800225A647B68002283F8FC
:103CA0003C207B681B6C03F01003002B18D17B6851
:103CB0001B6C23F4885323F0020343F002027B6859
:103CC0001A64786800F03AF97B6800225A647B68CD
:103CD0001B6C23F0030343F001027B681A6401E0CC
:103CE0000123FB737B68002283F83C20FB7B184692
:103CF0001037BD4680BD000080B485B000AF78604D
:103D000039600023BB607B6893F83C30012B01D104
:103D1000022305E17B68012283F83C203B681B6895
:103D2000092B25D97B681B68D9683B681B689BB247
:103D30001A4613465B0013441E3B072202FA03F3A4
:103D4000DA437B681B680A40DA607B681B68D968C5
:103D50003B689A683B681B689BB2184603465B0049
:103D600003441E3B9A407B681B680A43DA6022E0EA
:103D70007B681B6819693B681B689BB21A4613462F
:103D80005B001344072202FA03F3DA437B681B68E3
:103D90000A401A617B681B6819693B689A683B682E
:103DA0001B689BB2184603465B0003449A407B683D
:103DB0001B680A431A613B685B68062B24D87B6842
:103DC0001B68596B3B685A6813469B001344053BBC
:103DD0001F2202FA03F3DA437B681B680A405A6326
:103DE0007B681B68596B3B681B689BB218463B6835
:103DF0005A6813469B001344053B00FA03F27B68A4
:103E00001B680A435A634CE03B685B680C2B24D860
:103E10007B681B68196B3B685A6813469B00134408
:103E2000233B1F2202FA03F3DA437B681B680A4034
:103E30001A637B681B68196B3B681B689BB218464A
:103E40003B685A6813469B001344233B00FA03F275
:103E50007B681B680A431A6323E07B681B68D96A86
:103E60003B685A6813469B001344413B1F2202FAE9
:103E700003F3DA437B681B680A40DA627B681B68DD
:103E8000D96A3B681B689BB218463B685A68134660
:103E90009B001344413B00FA03F27B681B680A4312
:103EA000DA62224BFB607B681B68214A934209D18E
:103EB0003B681B68122B05D1FB685B6843F48002EA
:103EC000FB685A607B681B68194A934223D13B68A0
:103ED0001B68102B03D03B681B68112B1BD1FB68A0
:103EE0005B6843F40002FB685A603B681B68102B58
:103EF00011D1104B1B68104AA2FB03239A0C1346E6
:103F00009B0013445B00BB6002E0BB68013BBB60ED
:103F1000BB68002BF9D17B68002283F83C2000238A
:103F200018461437BD465DF8047B704700230140F6
:103F300000200140B800002083DE1B4380B485B020
:103F400000AF7860794BFB60FB685B6823F440321C
:103F5000FB685A60FB685A687B685B681A43FB68B9
:103F60005A607B681B685A687B681B6822F4807201
:103F70005A607B681B6859687B681B691A027B68FA
:103F80001B680A435A607B681B685A687B681B6819
:103F900022F040725A607B681B6859687B689A6897
:103FA0007B681B680A435A607B681B689A687B6859
:103FB0001B6822F400629A607B681B6899687B68C2
:103FC000DA687B681B680A439A607B689B6A584A78
:103FD000934222D07B681B689A687B681B6822F03A
:103FE00070629A607B681B6899687B689A6A7B68D4
:103FF0001B680A439A607B681B689A687B681B6829
:1040000022F040529A607B681B6899687B68DA6A84
:104010007B681B680A439A600FE07B681B689A689C
:104020007B681B6822F070629A607B681B689A68E4
:104030007B681B6822F040529A607B681B689A6814
:104040007B681B6822F002029A607B681B68996893
:104050007B681B7E5A007B681B680A439A607B68FA
:1040600093F82030002B1BD07B681B685A687B6854
:104070001B6842F400625A607B681B685A687B6860
:104080001B6822F460425A607B681B6859687B6831
:104090005B6A013B5A037B681B680A435A6007E06E
:1040A0007B681B685A687B681B6822F400625A6050
:1040B0007B681B68DA6A7B681B6822F47002DA622C
:1040C0007B681B68D96A7B68DB69013B1A057B68E2
:1040D0001B680A43DA627B681B689A687B681B6806
:1040E00022F400729A607B681B6899687B6893F879
:1040F00030305A027B681B680A439A607B681B68F1
:104100009A687B681B6822F480629A607B681B68EF
:1041100099687B685B699A027B681B680A439A60AE
:1041200000BF1437BD465DF8047B70470023014093
:104130000100000F80B485B000AF78607B6803F0A9
:104140000703FB600C4BDB68BB60BA684FF6FF03EC
:104150001340BB60FB681A02BB68134343F0BF63A4
:1041600043F40033BB60044ABB68D36000BF14371C
:10417000BD465DF8047B704700ED00E080B400AF01
:10418000044BDB681B0A03F007031846BD465DF8C5
:10419000047B704700ED00E080B483B000AF0346BD
:1041A000FB7197F90730002B0BDBFB7903F01F0243
:1041B000074997F907305B09012000FA02F241F83C
:1041C000232000BF0C37BD465DF8047B704700BF5D
:1041D00000E100E080B483B000AF03463960FB71BA
:1041E00097F90730002B0ADB3B68DAB20C4997F9E4
:1041F00007301201D2B20B4483F800230AE03B6877
:10420000DAB20849FB7903F00F03043B1201D2B282
:104210000B441A7600BF0C37BD465DF8047B70472F
:1042200000E100E000ED00E080B489B000AFF8608C
:10423000B9607A60FB6803F00703FB61FB69C3F1B7
:104240000703042B28BF0423BB61FB690433062B3F
:1042500002D9FB69033B00E000237B614FF0FF3292
:10426000BB6902FA03F3DA43BB681A407B699A40E0
:104270004FF0FF317B6901FA03F3D9437B680B40B0
:10428000134318462437BD465DF8047B7047000091
:1042900080B582B000AF78607B68013BB3F1807F6E
:1042A00001D301230FE00A4A7B68013B53600F21D1
:1042B0004FF0FF30FFF78EFF054B00229A60044B52
:1042C00007221A60002318460837BD4680BD00BF8C
:1042D00010E000E080B582B000AF78607868FFF74A
:1042E00029FF00BF0837BD4680BD80B586B000AF4E
:1042F0000346B9607A60FB7300237B61FFF73EFFE2
:1043000078617A68B9687869FFF78EFF024697F995
:104310000F3011461846FFF75DFF00BF1837BD4646
:1043200080BD80B582B000AF0346FB7197F90730BE
:104330001846FFF731FF00BF0837BD4680BD80B586
:1043400082B000AF78607868FFF7A2FF0346184696
:104350000837BD4680BD000080B586B000AF7860EC
:1043600000237B61FFF754FC38617B68002B01D18F
:10437000012399E07B68022283F835207B680022C4
:1043800083F834207B681B681A687B681B6822F0FE
:1043900001021A600FE0FFF73BFC02463B69D31AAB
:1043A000052B08D97B6820225A657B68032283F895
:1043B0003520032378E07B681B681B6803F001034A
:1043C000002BE8D17B681B681B687B617A69384BDE
:1043D00013407B617B685A687B689B681A437B68E3
:1043E000DB681A437B681B691A437B685B691A4365
:1043F0007B689B691A437B68DB691A437B681B6A8D
:1044000013437A6913437B617B685B6A042B07D192
:104410007B68DA6A7B681B6B13437A6913437B61A1
:104420007B681B687A691A607B681B685B697B61C3
:104430007B6923F007037B617B685B6A7A691343BE
:104440007B617B685B6A042B17D17B689B6A7A6906
:1044500013437B617B68DB6A002B0ED0786800F029
:104460007BFA0346002B08D07B6840225A657B68A4
:10447000012283F83520012316E07B681B687A69E6
:104480005A61786800F032FA0346FB607B68DB6DA6
:104490003F229A40FB689A607B6800225A657B68DD
:1044A000012283F83520002318461837BD4680BD09
:1044B0003F8010F080B584B000AF78607B689B6D62
:1044C000FB60FFF7A5FBB8607B6893F83530DBB283
:1044D000022B08D07B6880225A657B68002283F813
:1044E0003420012352E07B681B681A687B681B68D4
:1044F00022F016021A607B681B685A697B681B6889
:1045000022F080025A617B681B6C002B03D17B6810
:104510009B6C002B07D07B681B681A687B681B6844
:1045200022F008021A607B681B681A687B681B68A7
:1045300022F001021A6013E0FFF76AFB0246BB6833
:10454000D31A052B0CD97B6820225A657B6803227D
:1045500083F835207B68002283F83420032315E09C
:104560007B681B681B6803F00103002BE4D17B68A8
:10457000DB6D3F229A40FB689A607B68012283F8DA
:1045800035207B68002283F834200023184610373A
:10459000BD4680BD80B483B000AF78607B6893F87F
:1045A0003530DBB2022B04D07B6880225A650123B0
:1045B0000CE07B68052283F835207B681B681A684D
:1045C0007B681B6822F001021A60002318460C3732
:1045D000BD465DF8047B704780B586B000AF78605B
:1045E0000023BB608E4B1B688E4AA2FB03239B0AF1
:1045F0007B617B689B6D3B613B691B68FB607B68F3
:10460000DB6D08229A40FB681340002B1AD07B68B0
:104610001B681B6803F00403002B13D07B681B6826
:104620001A687B681B6822F004021A607B68DB6DE5
:1046300008229A403B699A607B685B6D43F00102F7
:104640007B685A657B68DB6D01229A40FB681340EA
:10465000002B12D07B681B685B6903F08003002B82
:104660000BD07B68DB6D01229A403B699A607B68C6
:104670005B6D43F002027B685A657B68DB6D042248
:104680009A40FB681340002B12D07B681B681B68A4
:1046900003F00203002B0BD07B68DB6D04229A40F1
:1046A0003B699A607B685B6D43F004027B685A65E6
:1046B0007B68DB6D10229A40FB681340002B43D0CF
:1046C0007B681B681B6803F00803002B3CD07B68E9
:1046D000DB6D10229A403B699A607B681B681B68FF
:1046E00003F48023002B18D07B681B681B6803F43D
:1046F0000023002B08D17B681B6C002B24D07B6827
:104700001B6C786898471FE07B689B6C002B1BD064
:104710007B689B6C7868984716E07B681B681B6811
:1047200003F48073002B07D17B681B681A687B68D1
:104730001B6822F008021A607B681B6C002B03D0F8
:104740007B681B6C786898477B68DB6D20229A40F9
:10475000FB681340002B00F08F807B681B681B6890
:1047600003F01003002B00F087807B68DB6D2022B4
:104770009A403B699A607B6893F83530DBB2052B31
:1047800036D17B681B681A687B681B6822F01602AA
:104790001A607B681B685A697B681B6822F080027C
:1047A0005A617B681B6C002B03D17B689B6C002BD0
:1047B00007D07B681B681A687B681B6822F00802B8
:1047C0001A607B68DB6D3F229A403B699A607B6888
:1047D000012283F835207B68002283F834207B682F
:1047E0001B6D002B7ED07B681B6D7868984779E045
:1047F0007B681B681B6803F48023002B1DD07B683B
:104800001B681B6803F40023002B0DD17B685B6CD5
:10481000002B31D07B685B6C786898472CE000BF38
:10482000B8000020B5814E1B7B68DB6B002B23D0CA
:104830007B68DB6B786898471EE07B681B681B68A9
:1048400003F48073002B0FD17B681B681A687B68A8
:104850001B6822F010021A607B68012283F8352061
:104860007B68002283F834207B68DB6B002B03D04D
:104870007B68DB6B786898477B685B6D002B32D078
:104880007B685B6D03F00103002B22D07B6805225F
:1048900083F835207B681B681A687B681B6822F0E8
:1048A00001021A60BB680133BB607A699A4207D380
:1048B0007B681B681B6803F00103002BF2D100E04A
:1048C00000BF7B68012283F835207B68002283F8D3
:1048D00034207B68DB6C002B05D07B68DB6C786850
:1048E000984700E000BF1837BD4680BD80B485B052
:1048F00000AF78607B681B68DBB2103B144AA2FBF8
:1049000003231B09FB60134AFB6813441B781A46F8
:104910007B68DA65FB68032B09D97B681B6823F485
:104920007F7323F003031A1D7B689A6507E07B6899
:104930001B6823F47F7323F003037A6893657B6815
:104940009B6D18461437BD465DF8047B704700BF69
:10495000ABAAAAAA04C7000880B485B000AF7860EB
:104960000023FB737B689B6ABB607B689B69002BA1
:104970001FD1BB68032B56D801A252F823F000BF09
:1049800091490008A349000891490008274A0008F6
:104990007B68DB6A03F08073002B46D00123FB7336
:1049A00043E07B68DB6AB3F1C07F40D10123FB7336
:1049B0003DE07B689B69B3F5005F21D1BB68032BA9
:1049C00037D801A252F823F0D9490008DF4900087E
:1049D000D9490008F14900080123FB7330E07B68E6
:1049E000DB6A03F08073002B25D00123FB7322E0E8
:1049F0007B68DB6AB3F1C07F1FD10123FB731CE02E
:104A0000BB68022B03D9BB68032B03D018E001233A
:104A1000FB7315E07B68DB6A03F08073002B0ED01C
:104A20000123FB730BE000BF0AE000BF08E000BFFA
:104A300006E000BF04E000BF02E000BF00E000BFEE
:104A4000FB7B18461437BD465DF8047B704700BFFA
:104A500080B489B000AF7860396000237B610023A7
:104A60003B610023BB610023FB616BE10122FB6919
:104A700002FA03F37B613B681B687A6913403B6170
:104A80003A697B699A4240F05A813B685B6803F05F
:104A90000303012B05D03B685B6803F00303022B83
:104AA00030D17B689B68BB61FB695B00032202FA23
:104AB00003F3DB43BA691340BB613B68DA68FB6907
:104AC0005B0002FA03F3BA691343BB617B68BA69FE
:104AD0009A607B685B68BB610122FB6902FA03F3A1
:104AE000DB43BA691340BB613B685B681B0903F099
:104AF0000102FB6902FA03F3BA691343BB617B68E5
:104B0000BA695A603B685B6803F00303032B17D054
:104B10007B68DB68BB61FB695B00032202FA03F37D
:104B2000DB43BA691340BB613B689A68FB695B0071
:104B300002FA03F3BA691343BB617B68BA69DA60AE
:104B40003B685B6803F00303022B23D1FB69DA089F
:104B50007B68083253F82230BB61FB6903F007031E
:104B60009B000F2202FA03F3DB43BA691340BB61D7
:104B70003B681A69FB6903F007039B0002FA03F321
:104B8000BA691343BB61FB69DA087B680832B9690B
:104B900043F822107B681B68BB61FB695B00032242
:104BA00002FA03F3DB43BA691340BB613B685B68FD
:104BB00003F00302FB695B0002FA03F3BA691343D3
:104BC000BB617B68BA691A603B685B6803F4403379
:104BD000002B00F0B4800023FB60604B5B6C5F4AED
:104BE00043F4804353645D4B5B6C03F48043FB6090
:104BF000FB685B4AFB699B08023352F82330BB61B8
:104C0000FB6903F003039B000F2202FA03F3DB436B
:104C1000BA691340BB617B68524A93422BD07B68D0
:104C2000514A934225D07B68504A93421FD07B68FB
:104C30004F4A934219D07B684E4A934213D07B6807
:104C40004D4A93420DD07B684C4A934207D07B6813
:104C50004B4A934201D107230EE008230CE00623C0
:104C60000AE0052308E0042306E0032304E002230E
:104C700002E0012300E00023FA6902F0030292003F
:104C80009340BA691343BB613549FB699B08023302
:104C9000BA6941F823203B4B1B68BB613B69DB438E
:104CA000BA691340BB613B685B6803F48033002B37
:104CB00003D0BA693B691343BB61324ABB691360D5
:104CC000304B5B68BB613B69DB43BA691340BB6136
:104CD0003B685B6803F40033002B03D0BA693B697F
:104CE0001343BB61274ABB695360264B9B68BB617A
:104CF0003B69DB43BA691340BB613B685B6803F403
:104D00008013002B03D0BA693B691343BB611D4A72
:104D1000BB6993601B4BDB68BB613B69DB43BA69D2
:104D20001340BB613B685B6803F40013002B03D0A6
:104D3000BA693B691343BB61124ABB69D360FB6923
:104D40000133FB61FB690F2B7FF690AE00BF00BF04
:104D50002437BD465DF8047B704700BF0038024031
:104D600000380140000002400004024000080240F8
:104D7000000C0240001002400014024000180240E3
:104D8000001C0240003C014080B483B000AF78605A
:104D90000B467B8013467B707B78002B03D07A8890
:104DA0007B689A6103E07B881A047B689A6100BF84
:104DB0000C37BD465DF8047B7047000080B584B0B9
:104DC00000AF78607B68002B01D101232BE17B6869
:104DD00093F83D30DBB2002B06D17B68002283F8CC
:104DE0003C207868FBF7B0FF7B68242283F83D20E5
:104DF0007B681B681A687B681B6822F001021A60D6
:104E00007B681B681A687B681B6842F400421A6062
:104E10007B681B681A687B681B6822F400421A6072
:104E200000F080FDF8607B685B68814A934207D898
:104E3000FB68804A934294BF01230023DBB206E063
:104E4000FB687D4A934294BF01230023DBB2002B11
:104E500001D00123E7E0FB68784AA2FB03239B0C07
:104E6000BB607B681B685B6823F03F017B681B6845
:104E7000BA680A435A607B681B681B6A23F03F01CB
:104E80007B685B686A4A934202D8BB68013309E0D9
:104E9000BB684FF4967202FB03F3694AA2FB03233B
:104EA0009B0901337A6812680B4313627B681B68A5
:104EB000DB6923F44F4222F0FF027B685B685C49A8
:104EC0008B4219D8FB68591E7B685B685B00B1FB9D
:104ED000F3F3591C40F6FC730B40002B0AD0FB681F
:104EE000591E7B685B685B00B1FBF3F30133C3F3CE
:104EF0000B0351E004234FE07B689B68002B11D12A
:104F0000FB68581E7B6859680B465B000B44B0FB7E
:104F1000F3F30133C3F30B03002B0CBF0123002376
:104F2000DBB212E0FB68581E7B6859680B469B0099
:104F30000B4499000B44B0FBF3F30133C3F30B03B1
:104F4000002B0CBF01230023DBB2002B01D0012377
:104F500022E07B689B68002B0ED1FB68581E7B68A3
:104F600059680B465B000B44B0FBF3F30133C3F30A
:104F70000B0343F400430FE0FB68581E7B6859683D
:104F80000B469B000B4499000B44B0FBF3F3013339
:104F9000C3F30B0343F44043796809681343CB61BF
:104FA0007B681B681B6823F0C0017B68DA697B683B
:104FB0001B6A1A437B681B680A431A607B681B687C
:104FC0009B6823F4034323F0FF037A6811697A682E
:104FD000D26811437A6812680B4393607B681B6840
:104FE000DB6823F0FF017B685A697B689B691A4381
:104FF0007B681B680A43DA607B681B681A687B68F9
:105000001B6842F001021A607B6800221A647B6808
:10501000202283F83D207B6800221A637B680022EF
:1050200083F83E20002318461037BD4680BD00BFE0
:10503000A08601007F841E00FF083D0083DE1B4325
:10504000D34D621080B586B000AF78607B68002BCE
:1050500001D1012367E27B681B6803F00103002B89
:1050600075D0884B9B6803F00C03042B0CD0854B48
:105070009B6803F00C03082B12D1824B5B6803F48E
:105080008003B3F5800F0BD17E4B1B6803F4003314
:10509000002B5BD07B685B68002B57D1012342E279
:1050A0007B685B68B3F5803F06D1764B1B68754A19
:1050B00043F4803313601DE07B685B68B3F5A02F79
:1050C0000CD1704B1B686F4A43F4802313606D4B07
:1050D0001B686C4A43F4803313600BE0694B1B6818
:1050E000684A23F480331360664B1B68654A23F4D7
:1050F000802313607B685B68002B13D0FEF788FD6C
:10510000386108E0FEF784FD02463B69D31A642B40
:1051100001D9032307E25B4B1B6803F40033002B28
:10512000F0D014E0FEF774FD386108E0FEF770FD82
:1051300002463B69D31A642B01D90323F3E1514B97
:105140001B6803F40033002BF0D100E000BF7B6844
:105150001B6803F00203002B63D04A4B9B6803F0EB
:105160000C03002B0BD0474B9B6803F00C03082B60
:105170001CD1444B5B6803F48003002B16D1414BD8
:105180001B6803F00203002B05D07B68DB68012B52
:1051900001D00123C7E13B4B1B6823F0F8027B6879
:1051A0001B69DB00374913430B603AE07B68DB681F
:1051B000002B20D0344B01221A60FEF729FD386104
:1051C00008E0FEF725FD02463B69D31A022B01D900
:1051D0000323A8E12B4B1B6803F00203002BF0D044
:1051E000284B1B6823F0F8027B681B69DB0025490C
:1051F00013430B6015E0244B00221A60FEF708FDF4
:10520000386108E0FEF704FD02463B69D31A022B21
:1052100001D9032387E11B4B1B6803F00203002B1A
:10522000F0D17B681B6803F00803002B36D07B6845
:105230005B69002B16D0154B01221A60FEF7E8FCC3
:10524000386108E0FEF7E4FC02463B69D31A022B02
:1052500001D9032367E10B4B5B6F03F00203002BC3
:10526000F0D01BE0094B00221A60FEF7D1FC386138
:105270000EE0FEF7CDFC02463B69D31A022B07D99C
:10528000032350E10038024000004742800E4742AD
:10529000884B5B6F03F00203002BEAD17B681B682D
:1052A00003F00403002B00F097800023FB75814B73
:1052B0001B6C03F08053002B0FD10023BB607D4B90
:1052C0001B6C7C4A43F0805313647A4B1B6C03F0D5
:1052D0008053BB60BB680123FB75774B1B6803F4ED
:1052E0008073002B18D1744B1B68734A43F480738E
:1052F0001360FEF78DFC386108E0FEF789FC02467A
:105300003B69D31A022B01D903230CE16A4B1B68BA
:1053100003F48073002BF0D07B689B68012B06D1CF
:10532000644B1B6F634A43F0010313671CE07B6807
:105330009B68052B0CD15F4B1B6F5E4A43F0040347
:1053400013675C4B1B6F5B4A43F0010313670BE071
:10535000584B1B6F574A23F001031367554B1B6FC4
:10536000544A23F0040313677B689B68002B15D015
:10537000FEF74EFC38610AE0FEF74AFC02463B6944
:10538000D31A41F28832934201D90323CBE0494B2F
:105390001B6F03F00203002BEED014E0FEF738FC85
:1053A00038610AE0FEF734FC02463B69D31A41F249
:1053B0008832934201D90323B5E03E4B1B6F03F0C3
:1053C0000203002BEED1FB7D012B05D1394B1B6C69
:1053D000384A23F0805313647B689B69002B00F0EC
:1053E000A180344B9B6803F00C03082B5CD07B68D6
:1053F0009B69022B41D1314B00221A60FEF708FC59
:10540000386108E0FEF704FC02463B69D31A022B20
:1054100001D9032387E0274B1B6803F00073002B9F
:10542000F0D17B68DA697B681B6A1A437B685B6A28
:105430009B011A437B689B6A5B08013B1B041A4370
:105440007B68DB6A1B061B4913434B601B4B012225
:105450001A60FEF7DDFB386108E0FEF7D9FB024673
:105460003B69D31A022B01D903235CE0114B1B6863
:1054700003F00073002BF0D054E0104B00221A60B0
:10548000FEF7C6FB386108E0FEF7C2FB02463B6947
:10549000D31A022B01D9032345E0064B1B6803F006
:1054A0000073002BF0D13DE07B689B69012B07D195
:1054B000012338E00038024000700040600047429D
:1054C0001B4B5B68FB607B689B69012B28D0FB68EA
:1054D00003F480027B68DB699A4221D1FB6803F008
:1054E0003F027B681B6A9A421AD1FA6847F6C0737A
:1054F00013407A68526A9201934211D1FB6803F417
:1055000040327B689B6A5B08013B1B049A4207D1CF
:10551000FB6803F070627B68DB6A1B069A4201D06D
:10552000012300E0002318461837BD4680BD00BFA8
:105530000038024080B584B000AF786039607B6885
:10554000002B01D10123CCE0684B1B6803F007035B
:105550003A689A420CD9654B3A68D2B21A70634BDA
:105560001B6803F007033A689A4201D00123B8E0B0
:105570007B681B6803F00203002B20D07B681B684C
:1055800003F00403002B05D0594B9B68584A43F4A1
:10559000E05393607B681B6803F00803002B05D081
:1055A000534B9B68524A43F460439360504B9B6853
:1055B00023F0F0027B689B684D4913438B607B6846
:1055C0001B6803F00103002B44D07B685B68012B50
:1055D00007D1474B1B6803F40033002B19D101237B
:1055E0007FE07B685B68022B03D07B685B68032BE2
:1055F00007D13F4B1B6803F00073002B09D1012337
:105600006FE03B4B1B6803F00203002B01D1012329
:1056100067E0374B9B6823F003027B685B68344983
:1056200013438B60FEF7F4FAF8600AE0FEF7F0FA35
:105630000246FB68D31A41F28832934201D9032310
:105640004FE02B4B9B6803F00C027B685B689B0070
:105650009A42EBD1254B1B6803F007033A689A4244
:105660000CD2224B3A68D2B21A70204B1B6803F05E
:1056700007033A689A4201D0012332E07B681B6835
:1056800003F00403002B08D0194B9B6823F4E0526D
:105690007B68DB68164913438B607B681B6803F0EB
:1056A0000803002B09D0124B9B6823F460427B68EF
:1056B0001B69DB000E4913438B6000F021F80246A2
:1056C0000B4B9B681B0903F00F030A49CB5C22FAC2
:1056D00003F3094A1360094B1B681846FEF754FA96
:1056E000002318461037BD4680BD00BF003C024075
:1056F00000380240ECC60008B8000020BC000020C2
:105700002DE9B04F94B000AF00237B640023FB640D
:1057100000233B640023BB64794B9B6803F00C03BC
:10572000082B0DD0082B00F2E180002B02D0042BB7
:1057300003D0DBE0734BBB64DBE0734BBB64D8E0AE
:105740006F4B5B6803F03F037B646D4B5B6803F456
:105750008003002B63D06A4B5B689B090022BB630C
:10576000FA63BB6BC3F308033B6300237B63D7E996
:105770000C4522462B464FF000004FF00001590126
:1057800041EAD261500102460B462146511A396165
:10579000294663EB01037B614FF000024FF00003E9
:1057A000D7E904AB59468B01514643EA9163514610
:1057B0008A015146B2EB0108594663EB01094FF0EB
:1057C00000024FF000034FEAC90343EA58734FEA5F
:1057D000C80290469946234618EB0303BB602B464C
:1057E00049EB0303FB604FF000024FF00003D7E9E1
:1057F000024529464B02214643EAD15321464A023B
:10580000104619467B6C0022BB62FA62D7E90A2374
:10581000FAF72EFD02460B461346FB6458E0384B60
:105820005B689B09002218461146C0F308033B62DF
:1058300000237B62D7E9088942464B464FF00000BF
:105840004FF00001590141EAD261500102460B4676
:105850004146B2EB010A494663EB010B4FF00002EF
:105860004FF000034FEA8B1343EA9A634FEA8A1220
:10587000B2EB0A0463EB0B054FF000024FF000039C
:10588000EB0043EA5473E20014461D464346E31816
:105890003B604B4645EB03037B604FF000024FF04B
:1058A0000003D7E9004529468B02214643EA91537C
:1058B00021468A02104619467B6C0022BB61FA61C0
:1058C000D7E90623FAF7D4FC02460B461346FB64DD
:1058D0000B4B5B681B0C03F0030301335B003B6461
:1058E000FA6C3B6CB2FBF3F3BB6402E0054BBB64A8
:1058F00000BFBB6C18465037BD46BDE8B08F00BF37
:10590000003802400024F40000127A0080B400AF96
:10591000034B1B681846BD465DF8047B704700BF0B
:10592000B800002080B500AFFFF7F0FF0246054B3E
:105930009B689B0A03F007030349CB5C22FA03F33D
:10594000184680BD00380240FCC6000880B500AF94
:10595000FFF7DCFF0246054B9B685B0B03F0070378
:105960000349CB5C22FA03F3184680BD003802409D
:10597000FCC6000880B582B000AF78607B68002B61
:1059800001D101237BE07B685B6A002B08D17B6837
:105990005B68B3F5827F09D07B680022DA6105E09D
:1059A0007B6800221A617B6800225A617B680022B2
:1059B0009A627B6893F85130DBB2002B06D17B688A
:1059C000002283F850207868FDF758FC7B6802229B
:1059D00083F851207B681B681A687B681B6822F07B
:1059E00040021A607B685B6803F482727B689B6884
:1059F00003F404431A437B68DB6803F400631A432F
:105A00007B681B6903F002031A437B685B6903F040
:105A100001031A437B689B6903F400731A437B6894
:105A2000DB6903F038031A437B681B6A03F08003C9
:105A300042EA03017B689B6A03F400527B681B689F
:105A40000A431A607B689B691B0C03F004017B68A6
:105A50005B6A03F010027B681B680A435A607B682C
:105A60001B68DA697B681B6822F40062DA617B6874
:105A700000225A657B68012283F8512000231846D2
:105A80000837BD4680BD80B588B000AFF860B9600A
:105A90003B601346FB800023FB77FB6893F8503094
:105AA000012B01D1022326E1FB68012283F850205B
:105AB000FEF7AEF8B861FB88FB82FB6893F85130C3
:105AC000DBB2012B02D00223FB770BE1BB68002B7A
:105AD00002D0FB88002B02D10123FB7702E1FB6897
